{
  "address": "0x5D0EC1F843c1233D304B96DbDE0CAB9Ec04D71EF",
  "abi": [
    {
      "inputs": [
        {
          "internalType": "contract IERC20",
          "name": "_token0",
          "type": "address"
        },
        {
          "internalType": "contract IERC20",
          "name": "_token1",
          "type": "address"
        },
        {
          "internalType": "string",
          "name": "name",
          "type": "string"
        },
        {
          "internalType": "string",
          "name": "symbol",
          "type": "string"
        },
        {
          "internalType": "uint8",
          "name": "decimals_",
          "type": "uint8"
        }
      ],
      "stateMutability": "nonpayable",
      "type": "constructor"
    },
    {
      "anonymous": false,
      "inputs": [
        {
          "indexed": true,
          "internalType": "address",
          "name": "owner",
          "type": "address"
        },
        {
          "indexed": true,
          "internalType": "address",
          "name": "spender",
          "type": "address"
        },
        {
          "indexed": false,
          "internalType": "uint256",
          "name": "value",
          "type": "uint256"
        }
      ],
      "name": "Approval",
      "type": "event"
    },
    {
      "anonymous": false,
      "inputs": [
        {
          "indexed": true,
          "internalType": "address",
          "name": "user",
          "type": "address"
        },
        {
          "indexed": false,
          "internalType": "uint256",
          "name": "token0Amount",
          "type": "uint256"
        },
        {
          "indexed": false,
          "internalType": "uint256",
          "name": "token1Amount",
          "type": "uint256"
        },
        {
          "indexed": false,
          "internalType": "uint256",
          "name": "share",
          "type": "uint256"
        }
      ],
      "name": "Deposit",
      "type": "event"
    },
    {
      "anonymous": false,
      "inputs": [
        {
          "indexed": true,
          "internalType": "address",
          "name": "trader",
          "type": "address"
        },
        {
          "indexed": false,
          "internalType": "int256",
          "name": "token0Amount",
          "type": "int256"
        },
        {
          "indexed": false,
          "internalType": "int256",
          "name": "token1Amount",
          "type": "int256"
        }
      ],
      "name": "Swap",
      "type": "event"
    },
    {
      "anonymous": false,
      "inputs": [
        {
          "indexed": true,
          "internalType": "address",
          "name": "from",
          "type": "address"
        },
        {
          "indexed": true,
          "internalType": "address",
          "name": "to",
          "type": "address"
        },
        {
          "indexed": false,
          "internalType": "uint256",
          "name": "value",
          "type": "uint256"
        }
      ],
      "name": "Transfer",
      "type": "event"
    },
    {
      "anonymous": false,
      "inputs": [
        {
          "indexed": true,
          "internalType": "address",
          "name": "user",
          "type": "address"
        },
        {
          "indexed": false,
          "internalType": "uint256",
          "name": "token0Amount",
          "type": "uint256"
        },
        {
          "indexed": false,
          "internalType": "uint256",
          "name": "token1Amount",
          "type": "uint256"
        },
        {
          "indexed": false,
          "internalType": "uint256",
          "name": "share",
          "type": "uint256"
        }
      ],
      "name": "Withdrawal",
      "type": "event"
    },
    {
      "inputs": [
        {
          "internalType": "address",
          "name": "owner",
          "type": "address"
        },
        {
          "internalType": "address",
          "name": "spender",
          "type": "address"
        }
      ],
      "name": "allowance",
      "outputs": [
        {
          "internalType": "uint256",
          "name": "",
          "type": "uint256"
        }
      ],
      "stateMutability": "view",
      "type": "function"
    },
    {
      "inputs": [
        {
          "internalType": "address",
          "name": "spender",
          "type": "address"
        },
        {
          "internalType": "uint256",
          "name": "amount",
          "type": "uint256"
        }
      ],
      "name": "approve",
      "outputs": [
        {
          "internalType": "bool",
          "name": "",
          "type": "bool"
        }
      ],
      "stateMutability": "nonpayable",
      "type": "function"
    },
    {
      "inputs": [
        {
          "internalType": "address",
          "name": "account",
          "type": "address"
        }
      ],
      "name": "balanceOf",
      "outputs": [
        {
          "internalType": "uint256",
          "name": "",
          "type": "uint256"
        }
      ],
      "stateMutability": "view",
      "type": "function"
    },
    {
      "inputs": [],
      "name": "decimals",
      "outputs": [
        {
          "internalType": "uint8",
          "name": "",
          "type": "uint8"
        }
      ],
      "stateMutability": "view",
      "type": "function"
    },
    {
      "inputs": [
        {
          "internalType": "address",
          "name": "spender",
          "type": "address"
        },
        {
          "internalType": "uint256",
          "name": "subtractedValue",
          "type": "uint256"
        }
      ],
      "name": "decreaseAllowance",
      "outputs": [
        {
          "internalType": "bool",
          "name": "",
          "type": "bool"
        }
      ],
      "stateMutability": "nonpayable",
      "type": "function"
    },
    {
      "inputs": [
        {
          "internalType": "uint256",
          "name": "token0Amount",
          "type": "uint256"
        },
        {
          "internalType": "uint256",
          "name": "token1Amount",
          "type": "uint256"
        },
        {
          "internalType": "uint256",
          "name": "minShare",
          "type": "uint256"
        }
      ],
      "name": "deposit",
      "outputs": [
        {
          "internalType": "uint256",
          "name": "share",
          "type": "uint256"
        }
      ],
      "stateMutability": "nonpayable",
      "type": "function"
    },
    {
      "inputs": [
        {
          "internalType": "uint256",
          "name": "token0Amount",
          "type": "uint256"
        },
        {
          "internalType": "uint256",
          "name": "token1Amount",
          "type": "uint256"
        },
        {
          "internalType": "address",
          "name": "to",
          "type": "address"
        },
        {
          "internalType": "uint256",
          "name": "minShare",
          "type": "uint256"
        }
      ],
      "name": "depositFor",
      "outputs": [
        {
          "internalType": "uint256",
          "name": "share",
          "type": "uint256"
        }
      ],
      "stateMutability": "nonpayable",
      "type": "function"
    },
    {
      "inputs": [
        {
          "internalType": "contract IERC20",
          "name": "tokenFrom",
          "type": "address"
        },
        {
          "internalType": "contract IERC20",
          "name": "tokenTo",
          "type": "address"
        },
        {
          "internalType": "uint256",
          "name": "inputAmount",
          "type": "uint256"
        }
      ],
      "name": "getReturn",
      "outputs": [
        {
          "internalType": "uint256",
          "name": "outputAmount",
          "type": "uint256"
        }
      ],
      "stateMutability": "view",
      "type": "function"
    },
    {
      "inputs": [
        {
          "internalType": "address",
          "name": "spender",
          "type": "address"
        },
        {
          "internalType": "uint256",
          "name": "addedValue",
          "type": "uint256"
        }
      ],
      "name": "increaseAllowance",
      "outputs": [
        {
          "internalType": "bool",
          "name": "",
          "type": "bool"
        }
      ],
      "stateMutability": "nonpayable",
      "type": "function"
    },
    {
      "inputs": [],
      "name": "name",
      "outputs": [
        {
          "internalType": "string",
          "name": "",
          "type": "string"
        }
      ],
      "stateMutability": "view",
      "type": "function"
    },
    {
      "inputs": [
        {
          "internalType": "uint256",
          "name": "inputAmount",
          "type": "uint256"
        },
        {
          "internalType": "uint256",
          "name": "minReturnAmount",
          "type": "uint256"
        }
      ],
      "name": "swap0To1",
      "outputs": [
        {
          "internalType": "uint256",
          "name": "outputAmount",
          "type": "uint256"
        }
      ],
      "stateMutability": "nonpayable",
      "type": "function"
    },
    {
      "inputs": [
        {
          "internalType": "uint256",
          "name": "inputAmount",
          "type": "uint256"
        },
        {
          "internalType": "address",
          "name": "to",
          "type": "address"
        },
        {
          "internalType": "uint256",
          "name": "minReturnAmount",
          "type": "uint256"
        }
      ],
      "name": "swap0To1For",
      "outputs": [
        {
          "internalType": "uint256",
          "name": "outputAmount",
          "type": "uint256"
        }
      ],
      "stateMutability": "nonpayable",
      "type": "function"
    },
    {
      "inputs": [
        {
          "internalType": "uint256",
          "name": "inputAmount",
          "type": "uint256"
        },
        {
          "internalType": "uint256",
          "name": "minReturnAmount",
          "type": "uint256"
        }
      ],
      "name": "swap1To0",
      "outputs": [
        {
          "internalType": "uint256",
          "name": "outputAmount",
          "type": "uint256"
        }
      ],
      "stateMutability": "nonpayable",
      "type": "function"
    },
    {
      "inputs": [
        {
          "internalType": "uint256",
          "name": "inputAmount",
          "type": "uint256"
        },
        {
          "internalType": "address",
          "name": "to",
          "type": "address"
        },
        {
          "internalType": "uint256",
          "name": "minReturnAmount",
          "type": "uint256"
        }
      ],
      "name": "swap1To0For",
      "outputs": [
        {
          "internalType": "uint256",
          "name": "outputAmount",
          "type": "uint256"
        }
      ],
      "stateMutability": "nonpayable",
      "type": "function"
    },
    {
      "inputs": [],
      "name": "symbol",
      "outputs": [
        {
          "internalType": "string",
          "name": "",
          "type": "string"
        }
      ],
      "stateMutability": "view",
      "type": "function"
    },
    {
      "inputs": [],
      "name": "token0",
      "outputs": [
        {
          "internalType": "contract IERC20",
          "name": "",
          "type": "address"
        }
      ],
      "stateMutability": "view",
      "type": "function"
    },
    {
      "inputs": [],
      "name": "token1",
      "outputs": [
        {
          "internalType": "contract IERC20",
          "name": "",
          "type": "address"
        }
      ],
      "stateMutability": "view",
      "type": "function"
    },
    {
      "inputs": [],
      "name": "totalSupply",
      "outputs": [
        {
          "internalType": "uint256",
          "name": "",
          "type": "uint256"
        }
      ],
      "stateMutability": "view",
      "type": "function"
    },
    {
      "inputs": [
        {
          "internalType": "address",
          "name": "recipient",
          "type": "address"
        },
        {
          "internalType": "uint256",
          "name": "amount",
          "type": "uint256"
        }
      ],
      "name": "transfer",
      "outputs": [
        {
          "internalType": "bool",
          "name": "",
          "type": "bool"
        }
      ],
      "stateMutability": "nonpayable",
      "type": "function"
    },
    {
      "inputs": [
        {
          "internalType": "address",
          "name": "sender",
          "type": "address"
        },
        {
          "internalType": "address",
          "name": "recipient",
          "type": "address"
        },
        {
          "internalType": "uint256",
          "name": "amount",
          "type": "uint256"
        }
      ],
      "name": "transferFrom",
      "outputs": [
        {
          "internalType": "bool",
          "name": "",
          "type": "bool"
        }
      ],
      "stateMutability": "nonpayable",
      "type": "function"
    },
    {
      "inputs": [
        {
          "internalType": "uint256",
          "name": "amount",
          "type": "uint256"
        },
        {
          "internalType": "uint256",
          "name": "minToken0Amount",
          "type": "uint256"
        },
        {
          "internalType": "uint256",
          "name": "minToken1Amount",
          "type": "uint256"
        }
      ],
      "name": "withdraw",
      "outputs": [
        {
          "internalType": "uint256",
          "name": "token0Amount",
          "type": "uint256"
        },
        {
          "internalType": "uint256",
          "name": "token1Amount",
          "type": "uint256"
        }
      ],
      "stateMutability": "nonpayable",
      "type": "function"
    },
    {
      "inputs": [
        {
          "internalType": "uint256",
          "name": "amount",
          "type": "uint256"
        },
        {
          "internalType": "address",
          "name": "to",
          "type": "address"
        },
        {
          "internalType": "uint256",
          "name": "minToken0Amount",
          "type": "uint256"
        },
        {
          "internalType": "uint256",
          "name": "minToken1Amount",
          "type": "uint256"
        }
      ],
      "name": "withdrawFor",
      "outputs": [
        {
          "internalType": "uint256",
          "name": "token0Amount",
          "type": "uint256"
        },
        {
          "internalType": "uint256",
          "name": "token1Amount",
          "type": "uint256"
        }
      ],
      "stateMutability": "nonpayable",
      "type": "function"
    },
    {
      "inputs": [
        {
          "internalType": "uint256",
          "name": "amount",
          "type": "uint256"
        },
        {
          "internalType": "address",
          "name": "to",
          "type": "address"
        },
        {
          "internalType": "uint256",
          "name": "token0Share",
          "type": "uint256"
        },
        {
          "internalType": "uint256",
          "name": "minToken0Amount",
          "type": "uint256"
        },
        {
          "internalType": "uint256",
          "name": "minToken1Amount",
          "type": "uint256"
        }
      ],
      "name": "withdrawForWithRatio",
      "outputs": [
        {
          "internalType": "uint256",
          "name": "token0Amount",
          "type": "uint256"
        },
        {
          "internalType": "uint256",
          "name": "token1Amount",
          "type": "uint256"
        }
      ],
      "stateMutability": "nonpayable",
      "type": "function"
    },
    {
      "inputs": [
        {
          "internalType": "uint256",
          "name": "amount",
          "type": "uint256"
        },
        {
          "internalType": "uint256",
          "name": "token0Share",
          "type": "uint256"
        },
        {
          "internalType": "uint256",
          "name": "minToken0Amount",
          "type": "uint256"
        },
        {
          "internalType": "uint256",
          "name": "minToken1Amount",
          "type": "uint256"
        }
      ],
      "name": "withdrawWithRatio",
      "outputs": [
        {
          "internalType": "uint256",
          "name": "token0Amount",
          "type": "uint256"
        },
        {
          "internalType": "uint256",
          "name": "token1Amount",
          "type": "uint256"
        }
      ],
      "stateMutability": "nonpayable",
      "type": "function"
    }
  ],
  "transactionHash": "0xa2e69f2523dd7f4520b6221750e85ef55a677fbe7ab6868977dda35e2d60650c",
  "args": [
    "0x2791Bca1f2de4661ED88A30C99A7a9449Aa84174",
    "0xc2132D05D31c914a87C6611C10748AEb04B58e8F",
    "FixedRateSwap",
    "FRS",
    6
  ],
  "solcInputHash": "2445d7b873241221d1d800222d2189f8",
  "bytecode": "0x60e06040523480156200001157600080fd5b50604051620037a6380380620037a68339810160408190526200003491620003a8565b8251839083906200004d90600390602085019062000206565b5080516200006390600490602084019062000206565b5050506001600160a01b03808616608081905290851660a05260ff821660c08190526040805163313ce56760e01b8152905191929163313ce567916004808201926020929091908290030181865afa158015620000c4573d6000803e3d6000fd5b505050506040513d601f19601f82011682018060405250810190620000ea91906200044b565b60ff1614620001405760405162461bcd60e51b815260206004820152601860248201527f746f6b656e3020646563696d616c73206d69736d61746368000000000000000060448201526064015b60405180910390fd5b8060ff16846001600160a01b031663313ce5676040518163ffffffff1660e01b8152600401602060405180830381865afa15801562000183573d6000803e3d6000fd5b505050506040513d601f19601f82011682018060405250810190620001a991906200044b565b60ff1614620001fb5760405162461bcd60e51b815260206004820152601860248201527f746f6b656e3120646563696d616c73206d69736d617463680000000000000000604482015260640162000137565b5050505050620004ad565b828054620002149062000470565b90600052602060002090601f01602090048101928262000238576000855562000283565b82601f106200025357805160ff191683800117855562000283565b8280016001018555821562000283579182015b828111156200028357825182559160200191906001019062000266565b506200029192915062000295565b5090565b5b8082111562000291576000815560010162000296565b80516001600160a01b0381168114620002c457600080fd5b919050565b634e487b7160e01b600052604160045260246000fd5b600082601f830112620002f157600080fd5b81516001600160401b03808211156200030e576200030e620002c9565b604051601f8301601f19908116603f01168101908282118183101715620003395762000339620002c9565b816040528381526020925086838588010111156200035657600080fd5b600091505b838210156200037a57858201830151818301840152908201906200035b565b838211156200038c5760008385830101525b9695505050505050565b805160ff81168114620002c457600080fd5b600080600080600060a08688031215620003c157600080fd5b620003cc86620002ac565b9450620003dc60208701620002ac565b60408701519094506001600160401b0380821115620003fa57600080fd5b6200040889838a01620002df565b945060608801519150808211156200041f57600080fd5b506200042e88828901620002df565b9250506200043f6080870162000396565b90509295509295909350565b6000602082840312156200045e57600080fd5b620004698262000396565b9392505050565b600181811c908216806200048557607f821691505b60208210811415620004a757634e487b7160e01b600052602260045260246000fd5b50919050565b60805160a05160c05161324b6200055b600039600061027b0152600081816103bb0152818161095201528181610a2001528181610ba001528181610eb101528181610ffd015281816111a9015281816116da015281816123d201526126a20152600081816101ff01528181610973015281816109ff01528181610aec01528181610e690152818161101e01528181611188015281816116110152818161231e015261265b015261324b6000f3fe608060405234801561001057600080fd5b50600436106101975760003560e01c80638882eb62116100e3578063c755836b1161008c578063db5dadbf11610066578063db5dadbf146103dd578063dd62ed3e146103f0578063eac38e0c1461043657600080fd5b8063c755836b14610390578063cdc4e51d146103a3578063d21220a7146103b657600080fd5b8063a457c2d7116100bd578063a457c2d714610357578063a9059cbb1461036a578063c0a535111461037d57600080fd5b80638882eb621461031457806395d89b4114610327578063a41fe49f1461032f57600080fd5b806323b872dd116101455780635a7e9a5f1161011f5780635a7e9a5f146102b857806360336508146102cb57806370a08231146102de57600080fd5b806323b872dd14610261578063313ce5671461027457806339509351146102a557600080fd5b80630dfe1681116101765780630dfe1681146101fa57806318160ddd146102465780631e1401f81461024e57600080fd5b8062aeef8a1461019c57806306fdde03146101c2578063095ea7b3146101d7575b600080fd5b6101af6101aa366004612d5c565b610449565b6040519081526020015b60405180910390f35b6101ca61045f565b6040516101b99190612db4565b6101ea6101e5366004612e2a565b6104f1565b60405190151581526020016101b9565b6102217f000000000000000000000000000000000000000000000000000000000000000081565b60405173ffffffffffffffffffffffffffffffffffffffff90911681526020016101b9565b6002546101af565b6101af61025c366004612e56565b610507565b6101ea61026f366004612e56565b61071d565b60405160ff7f00000000000000000000000000000000000000000000000000000000000000001681526020016101b9565b6101ea6102b3366004612e2a565b610805565b6101af6102c6366004612e97565b61084e565b6101af6102d9366004612ebe565b6109f8565b6101af6102ec366004612ee0565b73ffffffffffffffffffffffffffffffffffffffff1660009081526020819052604090205490565b6101af610322366004612efd565b610aa4565b6101ca610ee7565b61034261033d366004612d5c565b610ef6565b604080519283526020830191909152016101b9565b6101ea610365366004612e2a565b610f11565b6101ea610378366004612e2a565b610fe9565b6101af61038b366004612ebe565b610ff6565b6101af61039e366004612e97565b611084565b6103426103b1366004612f3c565b61120f565b6102217f000000000000000000000000000000000000000000000000000000000000000081565b6103426103eb366004612f84565b61142b565b6101af6103fe366004612fb6565b73ffffffffffffffffffffffffffffffffffffffff918216600090815260016020908152604080832093909416825291909152205490565b610342610444366004612fef565b611449565b600061045784843385610aa4565b949350505050565b60606003805461046e9061302c565b80601f016020809104026020016040519081016040528092919081815260200182805461049a9061302c565b80156104e75780601f106104bc576101008083540402835291602001916104e7565b820191906000526020600020905b8154815290600101906020018083116104ca57829003601f168201915b5050505050905090565b60006104fe338484611773565b50600192915050565b6000808211610577576040517f08c379a000000000000000000000000000000000000000000000000000000000815260206004820152601a60248201527f496e70757420616d6f756e742073686f756c64206265203e203000000000000060448201526064015b60405180910390fd5b6040517f70a0823100000000000000000000000000000000000000000000000000000000815230600482015260009073ffffffffffffffffffffffffffffffffffffffff8616906370a0823190602401602060405180830381865afa1580156105e4573d6000803e3d6000fd5b505050506040513d601f19601f820116820180604052508101906106089190613080565b6040517f70a0823100000000000000000000000000000000000000000000000000000000815230600482015290915060009073ffffffffffffffffffffffffffffffffffffffff8616906370a0823190602401602060405180830381865afa158015610678573d6000803e3d6000fd5b505050506040513d601f19601f8201168201806040525081019061069c9190613080565b905080841115610708576040517f08c379a000000000000000000000000000000000000000000000000000000000815260206004820152601760248201527f496e70757420616d6f756e7420697320746f6f20626967000000000000000000604482015260640161056e565b610713828286611927565b9695505050505050565b600061072a848484611a03565b73ffffffffffffffffffffffffffffffffffffffff84166000908152600160209081526040808320338452909152902054828110156107eb576040517f08c379a000000000000000000000000000000000000000000000000000000000815260206004820152602860248201527f45524332303a207472616e7366657220616d6f756e742065786365656473206160448201527f6c6c6f77616e6365000000000000000000000000000000000000000000000000606482015260840161056e565b6107f88533858403611773565b60019150505b9392505050565b33600081815260016020908152604080832073ffffffffffffffffffffffffffffffffffffffff8716845290915281205490916104fe9185906108499086906130c8565b611773565b600073ffffffffffffffffffffffffffffffffffffffff83163014156108d0576040517f08c379a000000000000000000000000000000000000000000000000000000000815260206004820152601960248201527f5377617020746f207468697320697320666f7262696464656e00000000000000604482015260640161056e565b73ffffffffffffffffffffffffffffffffffffffff831661094d576040517f08c379a000000000000000000000000000000000000000000000000000000000815260206004820152601960248201527f5377617020746f207a65726f20697320666f7262696464656e00000000000000604482015260640161056e565b61099a7f00000000000000000000000000000000000000000000000000000000000000007f0000000000000000000000000000000000000000000000000000000000000000868686611cb8565b9050337f803540962ed9acbf87226c32486d71e1c86c2bdb208e771bab2fd8a626f61e896109c783611de7565b6109d0906130e0565b6109d987611de7565b6040805192835260208301919091520160405180910390a29392505050565b6000610a477f00000000000000000000000000000000000000000000000000000000000000007f0000000000000000000000000000000000000000000000000000000000000000853386611cb8565b9050337f803540962ed9acbf87226c32486d71e1c86c2bdb208e771bab2fd8a626f61e89610a7485611de7565b610a7d84611de7565b610a86906130e0565b6040805192835260208301919091520160405180910390a292915050565b6040517f70a08231000000000000000000000000000000000000000000000000000000008152306004820152600090819073ffffffffffffffffffffffffffffffffffffffff7f000000000000000000000000000000000000000000000000000000000000000016906370a0823190602401602060405180830381865afa158015610b33573d6000803e3d6000fd5b505050506040513d601f19601f82011682018060405250810190610b579190613080565b6040517f70a0823100000000000000000000000000000000000000000000000000000000815230600482015290915060009073ffffffffffffffffffffffffffffffffffffffff7f000000000000000000000000000000000000000000000000000000000000000016906370a0823190602401602060405180830381865afa158015610be7573d6000803e3d6000fd5b505050506040513d601f19601f82011682018060405250810190610c0b9190613080565b9050600080610c1c89898686611e9d565b90925090506000610c2d82846130c8565b905060008111610c99576040517f08c379a000000000000000000000000000000000000000000000000000000000815260206004820152601c60248201527f456d707479206465706f736974206973206e6f7420616c6c6f77656400000000604482015260640161056e565b73ffffffffffffffffffffffffffffffffffffffff8816301415610d19576040517f08c379a000000000000000000000000000000000000000000000000000000000815260206004820152601c60248201527f4465706f73697420746f207468697320697320666f7262696464656e00000000604482015260640161056e565b6000610d2460025490565b90508015610d78576000828b8d610d3b898b6130c8565b610d4591906130c8565b610d4f91906130c8565b610d599190613119565b905080610d668385613130565b610d70919061319c565b975050610d7c565b8196505b87871015610de6576040517f08c379a000000000000000000000000000000000000000000000000000000000815260206004820152601360248201527f5368617265206973206e6f7420656e6f75676800000000000000000000000000604482015260640161056e565b610df08988611eee565b604080518c8152602081018c905290810188905273ffffffffffffffffffffffffffffffffffffffff8a16907f36af321ec8d3c75236829c5317affd40ddb308863a1236d2d277a4025cccee1e9060600160405180910390a28a15610e9157610e9173ffffffffffffffffffffffffffffffffffffffff7f00000000000000000000000000000000000000000000000000000000000000001633308e61200e565b8915610ed957610ed973ffffffffffffffffffffffffffffffffffffffff7f00000000000000000000000000000000000000000000000000000000000000001633308d61200e565b505050505050949350505050565b60606004805461046e9061302c565b600080610f0585338686611449565b90969095509350505050565b33600090815260016020908152604080832073ffffffffffffffffffffffffffffffffffffffff8616845290915281205482811015610fd2576040517f08c379a000000000000000000000000000000000000000000000000000000000815260206004820152602560248201527f45524332303a2064656372656173656420616c6c6f77616e63652062656c6f7760448201527f207a65726f000000000000000000000000000000000000000000000000000000606482015260840161056e565b610fdf3385858403611773565b5060019392505050565b60006104fe338484611a03565b60006110457f00000000000000000000000000000000000000000000000000000000000000007f0000000000000000000000000000000000000000000000000000000000000000853386611cb8565b9050337f803540962ed9acbf87226c32486d71e1c86c2bdb208e771bab2fd8a626f61e8961107283611de7565b61107b906130e0565b610a8686611de7565b600073ffffffffffffffffffffffffffffffffffffffff8316301415611106576040517f08c379a000000000000000000000000000000000000000000000000000000000815260206004820152601960248201527f5377617020746f207468697320697320666f7262696464656e00000000000000604482015260640161056e565b73ffffffffffffffffffffffffffffffffffffffff8316611183576040517f08c379a000000000000000000000000000000000000000000000000000000000815260206004820152601960248201527f5377617020746f207a65726f20697320666f7262696464656e00000000000000604482015260640161056e565b6111d07f00000000000000000000000000000000000000000000000000000000000000007f0000000000000000000000000000000000000000000000000000000000000000868686611cb8565b9050337f803540962ed9acbf87226c32486d71e1c86c2bdb208e771bab2fd8a626f61e896111fd86611de7565b61120684611de7565b6109d9906130e0565b6000806000871161127c576040517f08c379a000000000000000000000000000000000000000000000000000000000815260206004820152601f60248201527f456d707479207769746864726177616c206973206e6f7420616c6c6f77656400604482015260640161056e565b73ffffffffffffffffffffffffffffffffffffffff86163014156112fc576040517f08c379a000000000000000000000000000000000000000000000000000000000815260206004820152601f60248201527f5769746864726177616c20746f207468697320697320666f7262696464656e00604482015260640161056e565b73ffffffffffffffffffffffffffffffffffffffff8616611379576040517f08c379a000000000000000000000000000000000000000000000000000000000815260206004820152601f60248201527f5769746864726177616c20746f207a65726f20697320666f7262696464656e00604482015260640161056e565b670de0b6b3a76400008511156113eb576040517f08c379a000000000000000000000000000000000000000000000000000000000815260206004820152601960248201527f526174696f2073686f756c6420626520696e205b302c20315d00000000000000604482015260640161056e565b60006113f660025490565b905061140233896120ea565b61140d8887836122d4565b9093509150611420878985858989612524565b509550959350505050565b60008061143b863387878761120f565b915091505b94509492505050565b600080600086116114b6576040517f08c379a000000000000000000000000000000000000000000000000000000000815260206004820152601f60248201527f456d707479207769746864726177616c206973206e6f7420616c6c6f77656400604482015260640161056e565b73ffffffffffffffffffffffffffffffffffffffff8516301415611536576040517f08c379a000000000000000000000000000000000000000000000000000000000815260206004820152601f60248201527f5769746864726177616c20746f207468697320697320666f7262696464656e00604482015260640161056e565b73ffffffffffffffffffffffffffffffffffffffff85166115b3576040517f08c379a000000000000000000000000000000000000000000000000000000000815260206004820152601f60248201527f5769746864726177616c20746f207a65726f20697320666f7262696464656e00604482015260640161056e565b60006115be60025490565b90506115ca33886120ea565b6040517f70a082310000000000000000000000000000000000000000000000000000000081523060048201528190889073ffffffffffffffffffffffffffffffffffffffff7f000000000000000000000000000000000000000000000000000000000000000016906370a0823190602401602060405180830381865afa158015611658573d6000803e3d6000fd5b505050506040513d601f19601f8201168201806040525081019061167c9190613080565b6116869190613130565b611690919061319c565b6040517f70a082310000000000000000000000000000000000000000000000000000000081523060048201529093508190889073ffffffffffffffffffffffffffffffffffffffff7f000000000000000000000000000000000000000000000000000000000000000016906370a0823190602401602060405180830381865afa158015611721573d6000803e3d6000fd5b505050506040513d601f19601f820116820180604052508101906117459190613080565b61174f9190613130565b611759919061319c565b9150611769868885858989612524565b5094509492505050565b73ffffffffffffffffffffffffffffffffffffffff8316611815576040517f08c379a0000000000000000000000000000000000000000000000000000000008152602060048201526024808201527f45524332303a20617070726f76652066726f6d20746865207a65726f2061646460448201527f7265737300000000000000000000000000000000000000000000000000000000606482015260840161056e565b73ffffffffffffffffffffffffffffffffffffffff82166118b8576040517f08c379a000000000000000000000000000000000000000000000000000000000815260206004820152602260248201527f45524332303a20617070726f766520746f20746865207a65726f20616464726560448201527f7373000000000000000000000000000000000000000000000000000000000000606482015260840161056e565b73ffffffffffffffffffffffffffffffffffffffff83811660008181526001602090815260408083209487168084529482529182902085905590518481527f8c5be1e5ebec7d5bd14f71427d1e84f3dd0314c0f7b2291e5b200ac8c7c3b92591015b60405180910390a3505050565b60008383018181670de0b6b3a76400008702816119465761194661316d565b049050600082858801670de0b6b3a764000002816119665761196661316d565b049050670de0b6b3a7640000850260008185611981856126d1565b672ef1cef240e848b802611994876126d1565b672ef1cef240e848b8028886670de05bc096e9c00002816119b7576119b761316d565b04010302816119c8576119c861316d565b049050670de0b6b3a76400006119e682670de0b6b3a7640000612740565b8802816119f5576119f561316d565b049998505050505050505050565b73ffffffffffffffffffffffffffffffffffffffff8316611aa6576040517f08c379a000000000000000000000000000000000000000000000000000000000815260206004820152602560248201527f45524332303a207472616e736665722066726f6d20746865207a65726f20616460448201527f6472657373000000000000000000000000000000000000000000000000000000606482015260840161056e565b73ffffffffffffffffffffffffffffffffffffffff8216611b49576040517f08c379a000000000000000000000000000000000000000000000000000000000815260206004820152602360248201527f45524332303a207472616e7366657220746f20746865207a65726f206164647260448201527f6573730000000000000000000000000000000000000000000000000000000000606482015260840161056e565b73ffffffffffffffffffffffffffffffffffffffff831660009081526020819052604090205481811015611bff576040517f08c379a000000000000000000000000000000000000000000000000000000000815260206004820152602660248201527f45524332303a207472616e7366657220616d6f756e742065786365656473206260448201527f616c616e63650000000000000000000000000000000000000000000000000000606482015260840161056e565b73ffffffffffffffffffffffffffffffffffffffff808516600090815260208190526040808220858503905591851681529081208054849290611c439084906130c8565b925050819055508273ffffffffffffffffffffffffffffffffffffffff168473ffffffffffffffffffffffffffffffffffffffff167fddf252ad1be2c89b69c2b068fc378daa952ba7f163c4a11628f55a4df523b3ef84604051611ca991815260200190565b60405180910390a35b50505050565b6000611cc5868686610507565b905060008111611d31576040517f08c379a000000000000000000000000000000000000000000000000000000000815260206004820152601960248201527f456d7074792073776170206973206e6f7420616c6c6f77656400000000000000604482015260640161056e565b81811015611d9b576040517f08c379a000000000000000000000000000000000000000000000000000000000815260206004820152601660248201527f4d696e2072657475726e206e6f74207265616368656400000000000000000000604482015260640161056e565b611dbd73ffffffffffffffffffffffffffffffffffffffff871633308761200e565b611dde73ffffffffffffffffffffffffffffffffffffffff86168483612756565b95945050505050565b60007f7fffffffffffffffffffffffffffffffffffffffffffffffffffffffffffffff821115611e99576040517f08c379a000000000000000000000000000000000000000000000000000000000815260206004820152602860248201527f53616665436173743a2076616c756520646f65736e27742066697420696e206160448201527f6e20696e74323536000000000000000000000000000000000000000000000000606482015260840161056e565b5090565b6000808484028684020381811315611ec557611ebb878787876127ac565b9093509150611769565b6000811215611ee357611eda868886886127ac565b93509150611769565b509495939450505050565b73ffffffffffffffffffffffffffffffffffffffff8216611f6b576040517f08c379a000000000000000000000000000000000000000000000000000000000815260206004820152601f60248201527f45524332303a206d696e7420746f20746865207a65726f206164647265737300604482015260640161056e565b8060026000828254611f7d91906130c8565b909155505073ffffffffffffffffffffffffffffffffffffffff821660009081526020819052604081208054839290611fb79084906130c8565b909155505060405181815273ffffffffffffffffffffffffffffffffffffffff8316906000907fddf252ad1be2c89b69c2b068fc378daa952ba7f163c4a11628f55a4df523b3ef9060200160405180910390a35050565b60405173ffffffffffffffffffffffffffffffffffffffff80851660248301528316604482015260648101829052611cb29085907f23b872dd00000000000000000000000000000000000000000000000000000000906084015b604080517fffffffffffffffffffffffffffffffffffffffffffffffffffffffffffffffe08184030181529190526020810180517bffffffffffffffffffffffffffffffffffffffffffffffffffffffff167fffffffff0000000000000000000000000000000000000000000000000000000090931692909217909152612921565b73ffffffffffffffffffffffffffffffffffffffff821661218d576040517f08c379a000000000000000000000000000000000000000000000000000000000815260206004820152602160248201527f45524332303a206275726e2066726f6d20746865207a65726f2061646472657360448201527f7300000000000000000000000000000000000000000000000000000000000000606482015260840161056e565b73ffffffffffffffffffffffffffffffffffffffff821660009081526020819052604090205481811015612243576040517f08c379a000000000000000000000000000000000000000000000000000000000815260206004820152602260248201527f45524332303a206275726e20616d6f756e7420657863656564732062616c616e60448201527f6365000000000000000000000000000000000000000000000000000000000000606482015260840161056e565b73ffffffffffffffffffffffffffffffffffffffff8316600090815260208190526040812083830390556002805484929061227f908490613119565b909155505060405182815260009073ffffffffffffffffffffffffffffffffffffffff8516907fddf252ad1be2c89b69c2b068fc378daa952ba7f163c4a11628f55a4df523b3ef9060200161191a565b505050565b6040517f70a082310000000000000000000000000000000000000000000000000000000081523060048201526000908190819073ffffffffffffffffffffffffffffffffffffffff7f000000000000000000000000000000000000000000000000000000000000000016906370a0823190602401602060405180830381865afa158015612365573d6000803e3d6000fd5b505050506040513d601f19601f820116820180604052508101906123899190613080565b6040517f70a0823100000000000000000000000000000000000000000000000000000000815230600482015290915060009073ffffffffffffffffffffffffffffffffffffffff7f000000000000000000000000000000000000000000000000000000000000000016906370a0823190602401602060405180830381865afa158015612419573d6000803e3d6000fd5b505050506040513d601f19601f8201168201806040525081019061243d9190613080565b905060008561244c8985613130565b612456919061319c565b90506000866124658a85613130565b61246f919061319c565b9050600061247d82846130c8565b61248f670de0b6b3a764000085613130565b612499919061319c565b9050808910156124cc576124c283836124b28289613119565b6124bc8689613119565b8d612a2d565b9097509550612517565b8089111561250d5761250482846124e38288613119565b6124ed878a613119565b6124ff8e670de0b6b3a7640000613119565b612a2d565b97509550612517565b9195509350849084905b5050505050935093915050565b8184101561258e576040517f08c379a000000000000000000000000000000000000000000000000000000000815260206004820152601f60248201527f4d696e20746f6b656e30416d6f756e74206973206e6f74207265616368656400604482015260640161056e565b808310156125f8576040517f08c379a000000000000000000000000000000000000000000000000000000000815260206004820152601f60248201527f4d696e20746f6b656e31416d6f756e74206973206e6f74207265616368656400604482015260640161056e565b604080518581526020810185905290810186905233907f650fdf669e93aa6c8ff3defe2da9c12b64f1548e5e1e54e803f4c1beb6466c8e9060600160405180910390a283156126825761268273ffffffffffffffffffffffffffffffffffffffff7f0000000000000000000000000000000000000000000000000000000000000000168786612756565b82156126c9576126c973ffffffffffffffffffffffffffffffffffffffff7f0000000000000000000000000000000000000000000000000000000000000000168785612756565b505050505050565b6000670656e7dd8da1c9cf82111561270c57507ffffffffffffffffffffffffffffffffffffffffffffffffff9a91822725e3631810161271a565b81670656e7dd8da1c9cf0390505b670de0b6b3a7640000908002819004808002829004800282900480028290040204919050565b600081831061274f57816107fe565b5090919050565b60405173ffffffffffffffffffffffffffffffffffffffff83166024820152604481018290526122cf9084907fa9059cbb0000000000000000000000000000000000000000000000000000000090606401612068565b6000808085876127bc86886130c8565b6127c691906130c8565b6127d091906130c8565b6127da8688613130565b6127e4868a613130565b6127ee9190613119565b6127f8919061319c565b90508061280b5786869250925050611440565b6000806103e861281d6103e685613130565b612827919061319c565b905060006128566128506103e86128406103ea88613130565b61284a919061319c565b89612740565b8b612740565b90505b806128656001846130c8565b10156128fc57612876888886611927565b925060006128ad612887868d613119565b612891868d6130c8565b61289b888d6130c8565b6128a5888d613119565b910291020390565b905060008113156128d85784925060026128c783856130c8565b6128d1919061319c565b94506128f6565b60008112156128f05784915060026128c783856130c8565b506128fc565b50612859565b612906848b613119565b612910848b6130c8565b955095505050505094509492505050565b6000612983826040518060400160405280602081526020017f5361666545524332303a206c6f772d6c6576656c2063616c6c206661696c65648152508573ffffffffffffffffffffffffffffffffffffffff16612c109092919063ffffffff16565b8051909150156122cf57808060200190518101906129a191906131d7565b6122cf576040517f08c379a000000000000000000000000000000000000000000000000000000000815260206004820152602a60248201527f5361666545524332303a204552433230206f7065726174696f6e20646964206e60448201527f6f74207375636365656400000000000000000000000000000000000000000000606482015260840161056e565b60008084151580612a3d57508315155b612aa3576040517f08c379a000000000000000000000000000000000000000000000000000000000815260206004820152601c60248201527f416d6f756e74206578636565647320746f74616c2062616c616e636500000000604482015260640161056e565b82612ac8576000612ab586868a611927565b612abf90886130c8565b91509150612c06565b6000612adc84670de0b6b3a7640000613119565b90506000670de0b6b3a7640000612af3868a613130565b612afd848c613130565b612b079190613119565b612b11919061319c565b90506000806103e8612b256103e685613130565b612b2f919061319c565b90506000612b556103e8612b456103ea87613130565b612b4f919061319c565b8d612740565b90505b80612b646001846130c8565b1015612be857612b758a8a86611927565b92506000612b99612b86868f613119565b612b90868f6130c8565b8b029088020390565b90506000811315612bc4578492506002612bb383856130c8565b612bbd919061319c565b9450612be2565b6000811215612bdc578491506002612bb383856130c8565b50612be8565b50612b58565b612bf2848d613119565b612bfc848d6130c8565b9650965050505050505b9550959350505050565b6060610457848460008585843b612c83576040517f08c379a000000000000000000000000000000000000000000000000000000000815260206004820152601d60248201527f416464726573733a2063616c6c20746f206e6f6e2d636f6e7472616374000000604482015260640161056e565b6000808673ffffffffffffffffffffffffffffffffffffffff168587604051612cac91906131f9565b60006040518083038185875af1925050503d8060008114612ce9576040519150601f19603f3d011682016040523d82523d6000602084013e612cee565b606091505b5091509150612cfe828286612d09565b979650505050505050565b60608315612d185750816107fe565b825115612d285782518084602001fd5b816040517f08c379a000000000000000000000000000000000000000000000000000000000815260040161056e9190612db4565b600080600060608486031215612d7157600080fd5b505081359360208301359350604090920135919050565b60005b83811015612da3578181015183820152602001612d8b565b83811115611cb25750506000910152565b6020815260008251806020840152612dd3816040850160208701612d88565b601f017fffffffffffffffffffffffffffffffffffffffffffffffffffffffffffffffe0169190910160400192915050565b73ffffffffffffffffffffffffffffffffffffffff81168114612e2757600080fd5b50565b60008060408385031215612e3d57600080fd5b8235612e4881612e05565b946020939093013593505050565b600080600060608486031215612e6b57600080fd5b8335612e7681612e05565b92506020840135612e8681612e05565b929592945050506040919091013590565b600080600060608486031215612eac57600080fd5b833592506020840135612e8681612e05565b60008060408385031215612ed157600080fd5b50508035926020909101359150565b600060208284031215612ef257600080fd5b81356107fe81612e05565b60008060008060808587031215612f1357600080fd5b84359350602085013592506040850135612f2c81612e05565b9396929550929360600135925050565b600080600080600060a08688031215612f5457600080fd5b853594506020860135612f6681612e05565b94979496505050506040830135926060810135926080909101359150565b60008060008060808587031215612f9a57600080fd5b5050823594602084013594506040840135936060013592509050565b60008060408385031215612fc957600080fd5b8235612fd481612e05565b91506020830135612fe481612e05565b809150509250929050565b6000806000806080858703121561300557600080fd5b84359350602085013561301781612e05565b93969395505050506040820135916060013590565b600181811c9082168061304057607f821691505b6020821081141561307a577f4e487b7100000000000000000000000000000000000000000000000000000000600052602260045260246000fd5b50919050565b60006020828403121561309257600080fd5b5051919050565b7f4e487b7100000000000000000000000000000000000000000000000000000000600052601160045260246000fd5b600082198211156130db576130db613099565b500190565b60007f800000000000000000000000000000000000000000000000000000000000000082141561311257613112613099565b5060000390565b60008282101561312b5761312b613099565b500390565b6000817fffffffffffffffffffffffffffffffffffffffffffffffffffffffffffffffff048311821515161561316857613168613099565b500290565b7f4e487b7100000000000000000000000000000000000000000000000000000000600052601260045260246000fd5b6000826131d2577f4e487b7100000000000000000000000000000000000000000000000000000000600052601260045260246000fd5b500490565b6000602082840312156131e957600080fd5b815180151581146107fe57600080fd5b6000825161320b818460208701612d88565b919091019291505056fea264697066735822122086221e39f307408e9dd6b3ce95278b2cef177599a09d35c1cc582c2d10fb611464736f6c634300080a0033",
  "devdoc": {
    "details": "AMM that is designed for assets with stable price to each other e.g. USDC and USDT. It utilizes constant sum price curve x + y = const but fee is variable depending on the token balances. In most cases fee is equal to 1 bip. But when balances are at extreme ends it either lowers to 0 or increases to 20 bip. Fee calculations are explained in more details in `getReturn` method. Note that AMM does not support token with fees. Note that tokens decimals are required to be the same.",
    "kind": "dev",
    "methods": {
      "allowance(address,address)": {
        "details": "See {IERC20-allowance}."
      },
      "approve(address,uint256)": {
        "details": "See {IERC20-approve}. Requirements: - `spender` cannot be the zero address."
      },
      "balanceOf(address)": {
        "details": "See {IERC20-balanceOf}."
      },
      "decimals()": {
        "details": "Returns the number of decimals used to get its user representation. For example, if `decimals` equals `2`, a balance of `505` tokens should be displayed to a user as `5.05` (`505 / 10 ** 2`). Tokens usually opt for a value of 18, imitating the relationship between Ether and Wei. This is the value {ERC20} uses, unless this function is overridden; NOTE: This information is only used for _display_ purposes: it in no way affects any of the arithmetic of the contract, including {IERC20-balanceOf} and {IERC20-transfer}."
      },
      "decreaseAllowance(address,uint256)": {
        "details": "Atomically decreases the allowance granted to `spender` by the caller. This is an alternative to {approve} that can be used as a mitigation for problems described in {IERC20-approve}. Emits an {Approval} event indicating the updated allowance. Requirements: - `spender` cannot be the zero address. - `spender` must have allowance for the caller of at least `subtractedValue`."
      },
      "deposit(uint256,uint256,uint256)": {
        "params": {
          "minShare": "minimal required amount of LP tokens received",
          "token0Amount": "amount of token0 to deposit",
          "token1Amount": "amount of token1 to deposit"
        },
        "returns": {
          "share": "amount of LP tokens received"
        }
      },
      "depositFor(uint256,uint256,address,uint256)": {
        "details": "fully balanced deposit happens when ratio of amounts of deposit matches ratio of balances. To make a fair deposit when ratios do not match the contract finds the amount that is needed to swap to equalize ratios and makes that swap virtually to capture the swap fees. Then final share is calculated from fair deposit of virtual amounts.",
        "params": {
          "minShare": "minimal required amount of LP tokens received",
          "to": "address that will receive tokens",
          "token0Amount": "amount of token0 to deposit",
          "token1Amount": "amount of token1 to deposit"
        },
        "returns": {
          "share": "amount of LP tokens received"
        }
      },
      "getReturn(address,address,uint256)": {
        "details": "`getReturn` at point `x = inputBalance / (inputBalance + outputBalance)`: `getReturn(x) = 0.9999 + (0.5817091329374359 - x * 1.2734233188154198)^17` When balance is changed from `inputBalance` to `inputBalance + amount` we should take integral of getReturn to calculate proper amount: `getReturn(x0, x1) = (integral (0.9999 + (0.5817091329374359 - x * 1.2734233188154198)^17) dx from x=x0 to x=x1) / (x1 - x0)` `getReturn(x0, x1) = (0.9999 * x - 3.3827123349983306 * (x - 0.4568073509746632) ** 18 from x=x0 to x=x1) / (x1 - x0)` `getReturn(x0, x1) = (0.9999 * (x1 - x0) + 3.3827123349983306 * ((x0 - 0.4568073509746632) ** 18 - (x1 - 0.4568073509746632) ** 18)) / (x1 - x0)` C0 = 0.9999 C2 = 3.3827123349983306 C3 = 0.4568073509746632 `getReturn(x0, x1) = (C0 * (x1 - x0) + C2 * ((x0 - C3) ** 18 - (x1 - C3) ** 18)) / (x1 - x0)`",
        "params": {
          "inputAmount": "amount of `tokenFrom` that user wants to sell",
          "tokenFrom": "token that user wants to sell",
          "tokenTo": "token that user wants to buy"
        },
        "returns": {
          "outputAmount": "amount of `tokenTo` that user will receive after the trade"
        }
      },
      "increaseAllowance(address,uint256)": {
        "details": "Atomically increases the allowance granted to `spender` by the caller. This is an alternative to {approve} that can be used as a mitigation for problems described in {IERC20-approve}. Emits an {Approval} event indicating the updated allowance. Requirements: - `spender` cannot be the zero address."
      },
      "name()": {
        "details": "Returns the name of the token."
      },
      "swap0To1(uint256,uint256)": {
        "params": {
          "inputAmount": "amount of token0 to sell",
          "minReturnAmount": "minimal required amount of token1 to buy"
        },
        "returns": {
          "outputAmount": "amount of token1 bought"
        }
      },
      "swap0To1For(uint256,address,uint256)": {
        "params": {
          "inputAmount": "amount of token0 to sell",
          "minReturnAmount": "minimal required amount of token1 to buy",
          "to": "address that will receive tokens"
        },
        "returns": {
          "outputAmount": "amount of token1 bought"
        }
      },
      "swap1To0(uint256,uint256)": {
        "params": {
          "inputAmount": "amount of token1 to sell",
          "minReturnAmount": "minimal required amount of token0 to buy"
        },
        "returns": {
          "outputAmount": "amount of token0 bought"
        }
      },
      "swap1To0For(uint256,address,uint256)": {
        "params": {
          "inputAmount": "amount of token1 to sell",
          "minReturnAmount": "minimal required amount of token0 to buy",
          "to": "address that will receive tokens"
        },
        "returns": {
          "outputAmount": "amount of token0 bought"
        }
      },
      "symbol()": {
        "details": "Returns the symbol of the token, usually a shorter version of the name."
      },
      "totalSupply()": {
        "details": "See {IERC20-totalSupply}."
      },
      "transfer(address,uint256)": {
        "details": "See {IERC20-transfer}. Requirements: - `recipient` cannot be the zero address. - the caller must have a balance of at least `amount`."
      },
      "transferFrom(address,address,uint256)": {
        "details": "See {IERC20-transferFrom}. Emits an {Approval} event indicating the updated allowance. This is not required by the EIP. See the note at the beginning of {ERC20}. Requirements: - `sender` and `recipient` cannot be the zero address. - `sender` must have a balance of at least `amount`. - the caller must have allowance for ``sender``'s tokens of at least `amount`."
      },
      "withdraw(uint256,uint256,uint256)": {
        "params": {
          "amount": "amount of LP tokens to burn",
          "minToken0Amount": "minimal required amount of token0",
          "minToken1Amount": "minimal required amount of token1"
        },
        "returns": {
          "token0Amount": "amount of token0 received",
          "token1Amount": "amount of token1 received"
        }
      },
      "withdrawFor(uint256,address,uint256,uint256)": {
        "params": {
          "amount": "amount of LP tokens to burn",
          "minToken0Amount": "minimal required amount of token0",
          "minToken1Amount": "minimal required amount of token1",
          "to": "address that will receive tokens"
        },
        "returns": {
          "token0Amount": "amount of token0 received",
          "token1Amount": "amount of token1 received"
        }
      },
      "withdrawForWithRatio(uint256,address,uint256,uint256,uint256)": {
        "details": "withdrawal with custom ratio is semantically equal to proportional withdrawal with extra swap afterwards to get to the specified ratio. The contract does exactly this by making virtual proportional withdrawal and then finds the amount needed for an extra virtual swap to achieve specified ratio.",
        "params": {
          "amount": "amount of LP tokens to burn",
          "minToken0Amount": "minimal required amount of token0",
          "minToken1Amount": "minimal required amount of token1",
          "to": "address that will receive tokens",
          "token0Share": "percentage of token0 to receive with 100% equals to 1e18"
        },
        "returns": {
          "token0Amount": "amount of token0 received",
          "token1Amount": "amount of token1 received"
        }
      },
      "withdrawWithRatio(uint256,uint256,uint256,uint256)": {
        "params": {
          "amount": "amount of LP tokens to burn",
          "minToken0Amount": "minimal required amount of token0",
          "minToken1Amount": "minimal required amount of token1",
          "token0Share": "percentage of token0 to receive with 100% equals to 1e18"
        },
        "returns": {
          "token0Amount": "amount of token0 received",
          "token1Amount": "amount of token1 received"
        }
      }
    },
    "version": 1
  },
  "userdoc": {
    "kind": "user",
    "methods": {
      "deposit(uint256,uint256,uint256)": {
        "notice": "makes a deposit of both tokens to the AMM"
      },
      "depositFor(uint256,uint256,address,uint256)": {
        "notice": "makes a deposit of both tokens to the AMM and transfers LP tokens to the specified address"
      },
      "getReturn(address,address,uint256)": {
        "notice": "estimates return value of the swap"
      },
      "swap0To1(uint256,uint256)": {
        "notice": "swaps token0 for token1"
      },
      "swap0To1For(uint256,address,uint256)": {
        "notice": "swaps token0 for token1 and transfers them to specified receiver address"
      },
      "swap1To0(uint256,uint256)": {
        "notice": "swaps token1 for token0"
      },
      "swap1To0For(uint256,address,uint256)": {
        "notice": "swaps token1 for token0 and transfers them to specified receiver address"
      },
      "withdraw(uint256,uint256,uint256)": {
        "notice": "makes a proportional withdrawal of both tokens"
      },
      "withdrawFor(uint256,address,uint256,uint256)": {
        "notice": "makes a proportional withdrawal of both tokens and transfers them to the specified address"
      },
      "withdrawForWithRatio(uint256,address,uint256,uint256,uint256)": {
        "notice": "makes a withdrawal with custom ratio and transfers tokens to the specified address"
      },
      "withdrawWithRatio(uint256,uint256,uint256,uint256)": {
        "notice": "makes a withdrawal with custom ratio"
      }
    },
    "version": 1
  },
  "storageLayout": {
    "storage": [
      {
        "astId": 120,
        "contract": "contracts/FixedRateSwap.sol:FixedRateSwap",
        "label": "_balances",
        "offset": 0,
        "slot": "0",
        "type": "t_mapping(t_address,t_uint256)"
      },
      {
        "astId": 126,
        "contract": "contracts/FixedRateSwap.sol:FixedRateSwap",
        "label": "_allowances",
        "offset": 0,
        "slot": "1",
        "type": "t_mapping(t_address,t_mapping(t_address,t_uint256))"
      },
      {
        "astId": 128,
        "contract": "contracts/FixedRateSwap.sol:FixedRateSwap",
        "label": "_totalSupply",
        "offset": 0,
        "slot": "2",
        "type": "t_uint256"
      },
      {
        "astId": 130,
        "contract": "contracts/FixedRateSwap.sol:FixedRateSwap",
        "label": "_name",
        "offset": 0,
        "slot": "3",
        "type": "t_string_storage"
      },
      {
        "astId": 132,
        "contract": "contracts/FixedRateSwap.sol:FixedRateSwap",
        "label": "_symbol",
        "offset": 0,
        "slot": "4",
        "type": "t_string_storage"
      }
    ],
    "types": {
      "t_address": {
        "encoding": "inplace",
        "label": "address",
        "numberOfBytes": "20"
      },
      "t_mapping(t_address,t_mapping(t_address,t_uint256))": {
        "encoding": "mapping",
        "key": "t_address",
        "label": "mapping(address => mapping(address => uint256))",
        "numberOfBytes": "32",
        "value": "t_mapping(t_address,t_uint256)"
      },
      "t_mapping(t_address,t_uint256)": {
        "encoding": "mapping",
        "key": "t_address",
        "label": "mapping(address => uint256)",
        "numberOfBytes": "32",
        "value": "t_uint256"
      },
      "t_string_storage": {
        "encoding": "bytes",
        "label": "string",
        "numberOfBytes": "32"
      },
      "t_uint256": {
        "encoding": "inplace",
        "label": "uint256",
        "numberOfBytes": "32"
      }
    }
  }
}