{
  "address": "0x27FE0F25AcAbd7b4C8c28561059c8bfCEB8E64F3",
  "abi": [
    {
      "inputs": [
        {
          "internalType": "contract IERC20",
          "name": "_token0",
          "type": "address"
        },
        {
          "internalType": "contract IERC20",
          "name": "_token1",
          "type": "address"
        },
        {
          "internalType": "string",
          "name": "name",
          "type": "string"
        },
        {
          "internalType": "string",
          "name": "symbol",
          "type": "string"
        },
        {
          "internalType": "uint8",
          "name": "decimals_",
          "type": "uint8"
        }
      ],
      "stateMutability": "nonpayable",
      "type": "constructor"
    },
    {
      "anonymous": false,
      "inputs": [
        {
          "indexed": true,
          "internalType": "address",
          "name": "owner",
          "type": "address"
        },
        {
          "indexed": true,
          "internalType": "address",
          "name": "spender",
          "type": "address"
        },
        {
          "indexed": false,
          "internalType": "uint256",
          "name": "value",
          "type": "uint256"
        }
      ],
      "name": "Approval",
      "type": "event"
    },
    {
      "anonymous": false,
      "inputs": [
        {
          "indexed": true,
          "internalType": "address",
          "name": "previousOwner",
          "type": "address"
        },
        {
          "indexed": true,
          "internalType": "address",
          "name": "newOwner",
          "type": "address"
        }
      ],
      "name": "OwnershipTransferred",
      "type": "event"
    },
    {
      "anonymous": false,
      "inputs": [
        {
          "indexed": true,
          "internalType": "address",
          "name": "from",
          "type": "address"
        },
        {
          "indexed": true,
          "internalType": "address",
          "name": "to",
          "type": "address"
        },
        {
          "indexed": false,
          "internalType": "uint256",
          "name": "value",
          "type": "uint256"
        }
      ],
      "name": "Transfer",
      "type": "event"
    },
    {
      "inputs": [
        {
          "internalType": "address",
          "name": "owner",
          "type": "address"
        },
        {
          "internalType": "address",
          "name": "spender",
          "type": "address"
        }
      ],
      "name": "allowance",
      "outputs": [
        {
          "internalType": "uint256",
          "name": "",
          "type": "uint256"
        }
      ],
      "stateMutability": "view",
      "type": "function"
    },
    {
      "inputs": [
        {
          "internalType": "address",
          "name": "spender",
          "type": "address"
        },
        {
          "internalType": "uint256",
          "name": "amount",
          "type": "uint256"
        }
      ],
      "name": "approve",
      "outputs": [
        {
          "internalType": "bool",
          "name": "",
          "type": "bool"
        }
      ],
      "stateMutability": "nonpayable",
      "type": "function"
    },
    {
      "inputs": [
        {
          "internalType": "address",
          "name": "account",
          "type": "address"
        }
      ],
      "name": "balanceOf",
      "outputs": [
        {
          "internalType": "uint256",
          "name": "",
          "type": "uint256"
        }
      ],
      "stateMutability": "view",
      "type": "function"
    },
    {
      "inputs": [],
      "name": "decimals",
      "outputs": [
        {
          "internalType": "uint8",
          "name": "",
          "type": "uint8"
        }
      ],
      "stateMutability": "view",
      "type": "function"
    },
    {
      "inputs": [
        {
          "internalType": "address",
          "name": "spender",
          "type": "address"
        },
        {
          "internalType": "uint256",
          "name": "subtractedValue",
          "type": "uint256"
        }
      ],
      "name": "decreaseAllowance",
      "outputs": [
        {
          "internalType": "bool",
          "name": "",
          "type": "bool"
        }
      ],
      "stateMutability": "nonpayable",
      "type": "function"
    },
    {
      "inputs": [
        {
          "internalType": "uint256",
          "name": "token0Amount",
          "type": "uint256"
        },
        {
          "internalType": "uint256",
          "name": "token1Amount",
          "type": "uint256"
        }
      ],
      "name": "deposit",
      "outputs": [
        {
          "internalType": "uint256",
          "name": "share",
          "type": "uint256"
        }
      ],
      "stateMutability": "nonpayable",
      "type": "function"
    },
    {
      "inputs": [
        {
          "internalType": "uint256",
          "name": "token0Amount",
          "type": "uint256"
        },
        {
          "internalType": "uint256",
          "name": "token1Amount",
          "type": "uint256"
        },
        {
          "internalType": "address",
          "name": "to",
          "type": "address"
        }
      ],
      "name": "depositFor",
      "outputs": [
        {
          "internalType": "uint256",
          "name": "share",
          "type": "uint256"
        }
      ],
      "stateMutability": "nonpayable",
      "type": "function"
    },
    {
      "inputs": [
        {
          "internalType": "contract IERC20",
          "name": "tokenFrom",
          "type": "address"
        },
        {
          "internalType": "contract IERC20",
          "name": "tokenTo",
          "type": "address"
        },
        {
          "internalType": "uint256",
          "name": "inputAmount",
          "type": "uint256"
        }
      ],
      "name": "getReturn",
      "outputs": [
        {
          "internalType": "uint256",
          "name": "outputAmount",
          "type": "uint256"
        }
      ],
      "stateMutability": "view",
      "type": "function"
    },
    {
      "inputs": [
        {
          "internalType": "address",
          "name": "spender",
          "type": "address"
        },
        {
          "internalType": "uint256",
          "name": "addedValue",
          "type": "uint256"
        }
      ],
      "name": "increaseAllowance",
      "outputs": [
        {
          "internalType": "bool",
          "name": "",
          "type": "bool"
        }
      ],
      "stateMutability": "nonpayable",
      "type": "function"
    },
    {
      "inputs": [],
      "name": "name",
      "outputs": [
        {
          "internalType": "string",
          "name": "",
          "type": "string"
        }
      ],
      "stateMutability": "view",
      "type": "function"
    },
    {
      "inputs": [],
      "name": "owner",
      "outputs": [
        {
          "internalType": "address",
          "name": "",
          "type": "address"
        }
      ],
      "stateMutability": "view",
      "type": "function"
    },
    {
      "inputs": [],
      "name": "renounceOwnership",
      "outputs": [],
      "stateMutability": "nonpayable",
      "type": "function"
    },
    {
      "inputs": [
        {
          "internalType": "uint256",
          "name": "inputAmount",
          "type": "uint256"
        }
      ],
      "name": "swap0To1",
      "outputs": [
        {
          "internalType": "uint256",
          "name": "outputAmount",
          "type": "uint256"
        }
      ],
      "stateMutability": "nonpayable",
      "type": "function"
    },
    {
      "inputs": [
        {
          "internalType": "uint256",
          "name": "inputAmount",
          "type": "uint256"
        },
        {
          "internalType": "address",
          "name": "to",
          "type": "address"
        }
      ],
      "name": "swap0To1For",
      "outputs": [
        {
          "internalType": "uint256",
          "name": "outputAmount",
          "type": "uint256"
        }
      ],
      "stateMutability": "nonpayable",
      "type": "function"
    },
    {
      "inputs": [
        {
          "internalType": "uint256",
          "name": "inputAmount",
          "type": "uint256"
        }
      ],
      "name": "swap1To0",
      "outputs": [
        {
          "internalType": "uint256",
          "name": "outputAmount",
          "type": "uint256"
        }
      ],
      "stateMutability": "nonpayable",
      "type": "function"
    },
    {
      "inputs": [
        {
          "internalType": "uint256",
          "name": "inputAmount",
          "type": "uint256"
        },
        {
          "internalType": "address",
          "name": "to",
          "type": "address"
        }
      ],
      "name": "swap1To0For",
      "outputs": [
        {
          "internalType": "uint256",
          "name": "outputAmount",
          "type": "uint256"
        }
      ],
      "stateMutability": "nonpayable",
      "type": "function"
    },
    {
      "inputs": [],
      "name": "symbol",
      "outputs": [
        {
          "internalType": "string",
          "name": "",
          "type": "string"
        }
      ],
      "stateMutability": "view",
      "type": "function"
    },
    {
      "inputs": [],
      "name": "token0",
      "outputs": [
        {
          "internalType": "contract IERC20",
          "name": "",
          "type": "address"
        }
      ],
      "stateMutability": "view",
      "type": "function"
    },
    {
      "inputs": [],
      "name": "token1",
      "outputs": [
        {
          "internalType": "contract IERC20",
          "name": "",
          "type": "address"
        }
      ],
      "stateMutability": "view",
      "type": "function"
    },
    {
      "inputs": [],
      "name": "totalSupply",
      "outputs": [
        {
          "internalType": "uint256",
          "name": "",
          "type": "uint256"
        }
      ],
      "stateMutability": "view",
      "type": "function"
    },
    {
      "inputs": [
        {
          "internalType": "address",
          "name": "recipient",
          "type": "address"
        },
        {
          "internalType": "uint256",
          "name": "amount",
          "type": "uint256"
        }
      ],
      "name": "transfer",
      "outputs": [
        {
          "internalType": "bool",
          "name": "",
          "type": "bool"
        }
      ],
      "stateMutability": "nonpayable",
      "type": "function"
    },
    {
      "inputs": [
        {
          "internalType": "address",
          "name": "sender",
          "type": "address"
        },
        {
          "internalType": "address",
          "name": "recipient",
          "type": "address"
        },
        {
          "internalType": "uint256",
          "name": "amount",
          "type": "uint256"
        }
      ],
      "name": "transferFrom",
      "outputs": [
        {
          "internalType": "bool",
          "name": "",
          "type": "bool"
        }
      ],
      "stateMutability": "nonpayable",
      "type": "function"
    },
    {
      "inputs": [
        {
          "internalType": "address",
          "name": "newOwner",
          "type": "address"
        }
      ],
      "name": "transferOwnership",
      "outputs": [],
      "stateMutability": "nonpayable",
      "type": "function"
    },
    {
      "inputs": [
        {
          "internalType": "uint256",
          "name": "amount",
          "type": "uint256"
        }
      ],
      "name": "withdraw",
      "outputs": [
        {
          "internalType": "uint256",
          "name": "token0Share",
          "type": "uint256"
        },
        {
          "internalType": "uint256",
          "name": "token1Share",
          "type": "uint256"
        }
      ],
      "stateMutability": "nonpayable",
      "type": "function"
    },
    {
      "inputs": [
        {
          "internalType": "uint256",
          "name": "amount",
          "type": "uint256"
        },
        {
          "internalType": "address",
          "name": "to",
          "type": "address"
        }
      ],
      "name": "withdrawFor",
      "outputs": [
        {
          "internalType": "uint256",
          "name": "token0Share",
          "type": "uint256"
        },
        {
          "internalType": "uint256",
          "name": "token1Share",
          "type": "uint256"
        }
      ],
      "stateMutability": "nonpayable",
      "type": "function"
    }
  ],
  "transactionHash": "0xd4c4ca3b0ca37bbfa750c659ea749e77fa8142c09c3d7b70e1a7167d3615f25f",
  "args": [
    "0xA0b86991c6218b36c1d19D4a2e9Eb0cE3606eB48",
    "0xdAC17F958D2ee523a2206206994597C13D831ec7",
    "FixedRateSwap",
    "FRS",
    6
  ],
  "solcInputHash": "e6254bdb575bb33ad26c25423d1ed37a",
  "bytecode": "0x610140604052670de0b6b3a764000060e081905261010052670dbd2fc137a30000610120523480156200003157600080fd5b5060405162002a6338038062002a638339810160408190526200005491620002b2565b8251839083906200006d90600390602085019062000138565b5080516200008390600490602084019062000138565b5050506000620000986200013460201b60201c565b600580546001600160a01b0319166001600160a01b038316908117909155604051919250906000907f8be0079c531659141344cd1fd0a4f28419497f9722a3daafe3b4186f6b6457e0908290a350606094851b6001600160601b03199081166080529390941b90921660a052505060f81b7fff000000000000000000000000000000000000000000000000000000000000001660c052620003b1565b3390565b82805462000146906200035e565b90600052602060002090601f0160209004810192826200016a5760008555620001b5565b82601f106200018557805160ff1916838001178555620001b5565b82800160010185558215620001b5579182015b82811115620001b557825182559160200191906001019062000198565b50620001c3929150620001c7565b5090565b5b80821115620001c35760008155600101620001c8565b80516001600160a01b0381168114620001f657600080fd5b919050565b600082601f8301126200020d57600080fd5b81516001600160401b03808211156200022a576200022a6200039b565b604051601f8301601f19908116603f011681019082821181831017156200025557620002556200039b565b816040528381526020925086838588010111156200027257600080fd5b600091505b8382101562000296578582018301518183018401529082019062000277565b83821115620002a85760008385830101525b9695505050505050565b600080600080600060a08688031215620002cb57600080fd5b620002d686620001de565b9450620002e660208701620001de565b60408701519094506001600160401b03808211156200030457600080fd5b6200031289838a01620001fb565b945060608801519150808211156200032957600080fd5b506200033888828901620001fb565b925050608086015160ff811681146200035057600080fd5b809150509295509295909350565b600181811c908216806200037357607f821691505b602082108114156200039557634e487b7160e01b600052602260045260246000fd5b50919050565b634e487b7160e01b600052604160045260246000fd5b60805160601c60a05160601c60c05160f81c60e05161010051610120516126056200045e60003960006106c0015260006106ea015260006107260152600061029c0152600081816103c901528181610a0b01528181610b0c01528181610b8601528181610ce501528181610e51015261102a0152600081816101ee0152818161093301528181610ac501528181610ba701528181610cc401528181610f0e0152610fe201526126056000f3fe608060405234801561001057600080fd5b50600436106101a35760003560e01c8063715018a6116100ee578063a9059cbb11610097578063dd62ed3e11610071578063dd62ed3e146103eb578063e2bbb15814610431578063e9b4cfc714610444578063f2fde38b1461045757600080fd5b8063a9059cbb1461039e578063bd5b5642146103b1578063d21220a7146103c457600080fd5b806390210d7e116100c857806390210d7e1461037057806395d89b4114610383578063a457c2d71461038b57600080fd5b8063715018a6146103355780638999541a1461033f5780638da5cb5b1461035257600080fd5b80632e1a7d4d11610150578063395093511161012a57806339509351146102d9578063404a1f8a146102ec57806370a08231146102ff57600080fd5b80632e1a7d4d1461026d578063313ce567146102955780633576f6cc146102c657600080fd5b806318160ddd1161018157806318160ddd146102355780631e1401f81461024757806323b872dd1461025a57600080fd5b806306fdde03146101a8578063095ea7b3146101c65780630dfe1681146101e9575b600080fd5b6101b061046a565b6040516101bd91906121ef565b60405180910390f35b6101d96101d43660046120d3565b6104fc565b60405190151581526020016101bd565b6102107f000000000000000000000000000000000000000000000000000000000000000081565b60405173ffffffffffffffffffffffffffffffffffffffff90911681526020016101bd565b6002545b6040519081526020016101bd565b610239610255366004612092565b610512565b6101d9610268366004612092565b610766565b61028061027b366004612121565b61085a565b604080519283526020830191909152016101bd565b60405160ff7f00000000000000000000000000000000000000000000000000000000000000001681526020016101bd565b6102806102d4366004612153565b610871565b6101d96102e73660046120d3565b610b3b565b6102396102fa366004612153565b610b7f565b61023961030d36600461203c565b73ffffffffffffffffffffffffffffffffffffffff1660009081526020819052604090205490565b61033d610bcd565b005b61023961034d366004612153565b610cbd565b60055473ffffffffffffffffffffffffffffffffffffffff16610210565b61023961037e36600461219a565b610d0b565b6101b0611065565b6101d96103993660046120d3565b611074565b6101d96103ac3660046120d3565b61114e565b6102396103bf366004612121565b61115b565b6102107f000000000000000000000000000000000000000000000000000000000000000081565b6102396103f9366004612059565b73ffffffffffffffffffffffffffffffffffffffff918216600090815260016020908152604080832093909416825291909152205490565b61023961043f366004612178565b61116d565b610239610452366004612121565b61117a565b61033d61046536600461203c565b611186565b606060038054610479906124f8565b80601f01602080910402602001604051908101604052809291908181526020018280546104a5906124f8565b80156104f25780601f106104c7576101008083540402835291602001916104f2565b820191906000526020600020905b8154815290600101906020018083116104d557829003601f168201915b5050505050905090565b6000610509338484611338565b50600192915050565b6040517f70a08231000000000000000000000000000000000000000000000000000000008152306004820152600090819073ffffffffffffffffffffffffffffffffffffffff8616906370a082319060240160206040518083038186803b15801561057c57600080fd5b505afa158015610590573d6000803e3d6000fd5b505050506040513d601f19601f820116820180604052508101906105b4919061213a565b6040517f70a0823100000000000000000000000000000000000000000000000000000000815230600482015290915060009073ffffffffffffffffffffffffffffffffffffffff8616906370a082319060240160206040518083038186803b15801561061f57600080fd5b505afa158015610633573d6000803e3d6000fd5b505050506040513d601f19601f82011682018060405250810190610657919061213a565b9050600061066582846122b4565b8561067085806122b4565b61067a91906122b4565b61068c906706f05b59d3b20000612404565b6106969190612334565b905060006106a3826114ec565b90506000670de0b6b3a76400006106ba83826124b5565b6106e4907f0000000000000000000000000000000000000000000000000000000000000000612404565b61070e847f0000000000000000000000000000000000000000000000000000000000000000612404565b61071891906122b4565b6107229190612334565b90507f000000000000000000000000000000000000000000000000000000000000000061074f8289612404565b6107599190612334565b9998505050505050505050565b60006107738484846115fa565b73ffffffffffffffffffffffffffffffffffffffff8416600090815260016020908152604080832033845290915290205482811015610839576040517f08c379a000000000000000000000000000000000000000000000000000000000815260206004820152602860248201527f45524332303a207472616e7366657220616d6f756e742065786365656473206160448201527f6c6c6f77616e636500000000000000000000000000000000000000000000000060648201526084015b60405180910390fd5b61084d853361084886856124b5565b611338565b60019150505b9392505050565b6000806108678333610871565b9094909350915050565b600080600084116108de576040517f08c379a000000000000000000000000000000000000000000000000000000000815260206004820152601f60248201527f456d707479207769746864726177616c206973206e6f7420616c6c6f776564006044820152606401610830565b60006108e960025490565b6040517f70a082310000000000000000000000000000000000000000000000000000000081523060048201529091508190869073ffffffffffffffffffffffffffffffffffffffff7f000000000000000000000000000000000000000000000000000000000000000016906370a082319060240160206040518083038186803b15801561097557600080fd5b505afa158015610989573d6000803e3d6000fd5b505050506040513d601f19601f820116820180604052508101906109ad919061213a565b6109b79190612404565b6109c19190612334565b6040517f70a082310000000000000000000000000000000000000000000000000000000081523060048201529093508190869073ffffffffffffffffffffffffffffffffffffffff7f000000000000000000000000000000000000000000000000000000000000000016906370a082319060240160206040518083038186803b158015610a4d57600080fd5b505afa158015610a61573d6000803e3d6000fd5b505050506040513d601f19601f82011682018060405250810190610a85919061213a565b610a8f9190612404565b610a999190612334565b9150610aa533866118b7565b8215610aec57610aec73ffffffffffffffffffffffffffffffffffffffff7f0000000000000000000000000000000000000000000000000000000000000000168585611aa5565b8115610b3357610b3373ffffffffffffffffffffffffffffffffffffffff7f0000000000000000000000000000000000000000000000000000000000000000168584611aa5565b509250929050565b33600081815260016020908152604080832073ffffffffffffffffffffffffffffffffffffffff8716845290915281205490916105099185906108489086906122b4565b60006108537f00000000000000000000000000000000000000000000000000000000000000007f00000000000000000000000000000000000000000000000000000000000000008585611b7e565b60055473ffffffffffffffffffffffffffffffffffffffff163314610c4e576040517f08c379a000000000000000000000000000000000000000000000000000000000815260206004820181905260248201527f4f776e61626c653a2063616c6c6572206973206e6f7420746865206f776e65726044820152606401610830565b60055460405160009173ffffffffffffffffffffffffffffffffffffffff16907f8be0079c531659141344cd1fd0a4f28419497f9722a3daafe3b4186f6b6457e0908390a3600580547fffffffffffffffffffffffff0000000000000000000000000000000000000000169055565b60006108537f00000000000000000000000000000000000000000000000000000000000000007f00000000000000000000000000000000000000000000000000000000000000008585611b7e565b60055460009073ffffffffffffffffffffffffffffffffffffffff163314610d8f576040517f08c379a000000000000000000000000000000000000000000000000000000000815260206004820181905260248201527f4f776e61626c653a2063616c6c6572206973206e6f7420746865206f776e65726044820152606401610830565b6000610d9b84866122b4565b905060008111610e07576040517f08c379a000000000000000000000000000000000000000000000000000000000815260206004820152601c60248201527f456d707479206465706f736974206973206e6f7420616c6c6f776564000000006044820152606401610830565b6000610e1260025490565b90508192506000811115610fc2576040517f70a082310000000000000000000000000000000000000000000000000000000081523060048201526000907f000000000000000000000000000000000000000000000000000000000000000073ffffffffffffffffffffffffffffffffffffffff16906370a082319060240160206040518083038186803b158015610ea857600080fd5b505afa158015610ebc573d6000803e3d6000fd5b505050506040513d601f19601f82011682018060405250810190610ee0919061213a565b6040517f70a082310000000000000000000000000000000000000000000000000000000081523060048201527f000000000000000000000000000000000000000000000000000000000000000073ffffffffffffffffffffffffffffffffffffffff16906370a082319060240160206040518083038186803b158015610f6557600080fd5b505afa158015610f79573d6000803e3d6000fd5b505050506040513d601f19601f82011682018060405250810190610f9d919061213a565b610fa791906122b4565b905080610fb48385612404565b610fbe9190612334565b9350505b851561100a5761100a73ffffffffffffffffffffffffffffffffffffffff7f000000000000000000000000000000000000000000000000000000000000000016333089611c3a565b84156110525761105273ffffffffffffffffffffffffffffffffffffffff7f000000000000000000000000000000000000000000000000000000000000000016333088611c3a565b61105c8484611c9e565b50509392505050565b606060048054610479906124f8565b33600090815260016020908152604080832073ffffffffffffffffffffffffffffffffffffffff8616845290915281205482811015611135576040517f08c379a000000000000000000000000000000000000000000000000000000000815260206004820152602560248201527f45524332303a2064656372656173656420616c6c6f77616e63652062656c6f7760448201527f207a65726f0000000000000000000000000000000000000000000000000000006064820152608401610830565b611144338561084886856124b5565b5060019392505050565b60006105093384846115fa565b60006111678233610cbd565b92915050565b6000610853838333610d0b565b60006111678233610b7f565b60055473ffffffffffffffffffffffffffffffffffffffff163314611207576040517f08c379a000000000000000000000000000000000000000000000000000000000815260206004820181905260248201527f4f776e61626c653a2063616c6c6572206973206e6f7420746865206f776e65726044820152606401610830565b73ffffffffffffffffffffffffffffffffffffffff81166112aa576040517f08c379a000000000000000000000000000000000000000000000000000000000815260206004820152602660248201527f4f776e61626c653a206e6577206f776e657220697320746865207a65726f206160448201527f64647265737300000000000000000000000000000000000000000000000000006064820152608401610830565b60055460405173ffffffffffffffffffffffffffffffffffffffff8084169216907f8be0079c531659141344cd1fd0a4f28419497f9722a3daafe3b4186f6b6457e090600090a3600580547fffffffffffffffffffffffff00000000000000000000000000000000000000001673ffffffffffffffffffffffffffffffffffffffff92909216919091179055565b73ffffffffffffffffffffffffffffffffffffffff83166113da576040517f08c379a0000000000000000000000000000000000000000000000000000000008152602060048201526024808201527f45524332303a20617070726f76652066726f6d20746865207a65726f2061646460448201527f72657373000000000000000000000000000000000000000000000000000000006064820152608401610830565b73ffffffffffffffffffffffffffffffffffffffff821661147d576040517f08c379a000000000000000000000000000000000000000000000000000000000815260206004820152602260248201527f45524332303a20617070726f766520746f20746865207a65726f20616464726560448201527f73730000000000000000000000000000000000000000000000000000000000006064820152608401610830565b73ffffffffffffffffffffffffffffffffffffffff83811660008181526001602090815260408083209487168084529482529182902085905590518481527f8c5be1e5ebec7d5bd14f71427d1e84f3dd0314c0f7b2291e5b200ac8c7c3b92591015b60405180910390a3505050565b600080670de0b6b3a764000061150a84671874437e67f47f6c612348565b61151491906122cc565b61152690670a95a652ab66e8d0612441565b90506000670de0b6b3a764000061153d8380612348565b61154791906122cc565b9050670de0b6b3a764000061155c8280612348565b61156691906122cc565b9050670de0b6b3a764000061157b8280612348565b61158591906122cc565b9050670de0b6b3a764000061159a8280612348565b6115a491906122cc565b9050670de0b6b3a76400006115b98383612348565b6115c391906122cc565b90506115f26115e460006115df84670dbd2fc137a30000612240565b611dbe565b670de0b6b3a7640000611dd5565b949350505050565b73ffffffffffffffffffffffffffffffffffffffff831661169d576040517f08c379a000000000000000000000000000000000000000000000000000000000815260206004820152602560248201527f45524332303a207472616e736665722066726f6d20746865207a65726f20616460448201527f64726573730000000000000000000000000000000000000000000000000000006064820152608401610830565b73ffffffffffffffffffffffffffffffffffffffff8216611740576040517f08c379a000000000000000000000000000000000000000000000000000000000815260206004820152602360248201527f45524332303a207472616e7366657220746f20746865207a65726f206164647260448201527f65737300000000000000000000000000000000000000000000000000000000006064820152608401610830565b73ffffffffffffffffffffffffffffffffffffffff8316600090815260208190526040902054818110156117f6576040517f08c379a000000000000000000000000000000000000000000000000000000000815260206004820152602660248201527f45524332303a207472616e7366657220616d6f756e742065786365656473206260448201527f616c616e636500000000000000000000000000000000000000000000000000006064820152608401610830565b61180082826124b5565b73ffffffffffffffffffffffffffffffffffffffff80861660009081526020819052604080822093909355908516815290812080548492906118439084906122b4565b925050819055508273ffffffffffffffffffffffffffffffffffffffff168473ffffffffffffffffffffffffffffffffffffffff167fddf252ad1be2c89b69c2b068fc378daa952ba7f163c4a11628f55a4df523b3ef846040516118a991815260200190565b60405180910390a350505050565b73ffffffffffffffffffffffffffffffffffffffff821661195a576040517f08c379a000000000000000000000000000000000000000000000000000000000815260206004820152602160248201527f45524332303a206275726e2066726f6d20746865207a65726f2061646472657360448201527f73000000000000000000000000000000000000000000000000000000000000006064820152608401610830565b73ffffffffffffffffffffffffffffffffffffffff821660009081526020819052604090205481811015611a10576040517f08c379a000000000000000000000000000000000000000000000000000000000815260206004820152602260248201527f45524332303a206275726e20616d6f756e7420657863656564732062616c616e60448201527f63650000000000000000000000000000000000000000000000000000000000006064820152608401610830565b611a1a82826124b5565b73ffffffffffffffffffffffffffffffffffffffff841660009081526020819052604081209190915560028054849290611a559084906124b5565b909155505060405182815260009073ffffffffffffffffffffffffffffffffffffffff8516907fddf252ad1be2c89b69c2b068fc378daa952ba7f163c4a11628f55a4df523b3ef906020016114df565b60405173ffffffffffffffffffffffffffffffffffffffff8316602482015260448101829052611b799084907fa9059cbb00000000000000000000000000000000000000000000000000000000906064015b604080517fffffffffffffffffffffffffffffffffffffffffffffffffffffffffffffffe08184030181529190526020810180517bffffffffffffffffffffffffffffffffffffffffffffffffffffffff167fffffffff0000000000000000000000000000000000000000000000000000000090931692909217909152611de4565b505050565b6000611b8b858585610512565b905060008111611bf7576040517f08c379a000000000000000000000000000000000000000000000000000000000815260206004820152601960248201527f456d7074792073776170206973206e6f7420616c6c6f776564000000000000006044820152606401610830565b611c1973ffffffffffffffffffffffffffffffffffffffff8616333086611c3a565b6115f273ffffffffffffffffffffffffffffffffffffffff85168383611aa5565b60405173ffffffffffffffffffffffffffffffffffffffff80851660248301528316604482015260648101829052611c989085907f23b872dd0000000000000000000000000000000000000000000000000000000090608401611af7565b50505050565b73ffffffffffffffffffffffffffffffffffffffff8216611d1b576040517f08c379a000000000000000000000000000000000000000000000000000000000815260206004820152601f60248201527f45524332303a206d696e7420746f20746865207a65726f2061646472657373006044820152606401610830565b8060026000828254611d2d91906122b4565b909155505073ffffffffffffffffffffffffffffffffffffffff821660009081526020819052604081208054839290611d679084906122b4565b909155505060405181815273ffffffffffffffffffffffffffffffffffffffff8316906000907fddf252ad1be2c89b69c2b068fc378daa952ba7f163c4a11628f55a4df523b3ef9060200160405180910390a35050565b600081831015611dce5781610853565b5090919050565b6000818310611dce5781610853565b6000611e46826040518060400160405280602081526020017f5361666545524332303a206c6f772d6c6576656c2063616c6c206661696c65648152508573ffffffffffffffffffffffffffffffffffffffff16611ef09092919063ffffffff16565b805190915015611b795780806020019051810190611e6491906120ff565b611b79576040517f08c379a000000000000000000000000000000000000000000000000000000000815260206004820152602a60248201527f5361666545524332303a204552433230206f7065726174696f6e20646964206e60448201527f6f742073756363656564000000000000000000000000000000000000000000006064820152608401610830565b60606115f2848460008585843b611f63576040517f08c379a000000000000000000000000000000000000000000000000000000000815260206004820152601d60248201527f416464726573733a2063616c6c20746f206e6f6e2d636f6e74726163740000006044820152606401610830565b6000808673ffffffffffffffffffffffffffffffffffffffff168587604051611f8c91906121d3565b60006040518083038185875af1925050503d8060008114611fc9576040519150601f19603f3d011682016040523d82523d6000602084013e611fce565b606091505b5091509150611fde828286611fe9565b979650505050505050565b60608315611ff8575081610853565b8251156120085782518084602001fd5b816040517f08c379a000000000000000000000000000000000000000000000000000000000815260040161083091906121ef565b60006020828403121561204e57600080fd5b8135610853816125aa565b6000806040838503121561206c57600080fd5b8235612077816125aa565b91506020830135612087816125aa565b809150509250929050565b6000806000606084860312156120a757600080fd5b83356120b2816125aa565b925060208401356120c2816125aa565b929592945050506040919091013590565b600080604083850312156120e657600080fd5b82356120f1816125aa565b946020939093013593505050565b60006020828403121561211157600080fd5b8151801515811461085357600080fd5b60006020828403121561213357600080fd5b5035919050565b60006020828403121561214c57600080fd5b5051919050565b6000806040838503121561216657600080fd5b823591506020830135612087816125aa565b6000806040838503121561218b57600080fd5b50508035926020909101359150565b6000806000606084860312156121af57600080fd5b833592506020840135915060408401356121c8816125aa565b809150509250925092565b600082516121e58184602087016124cc565b9190910192915050565b602081526000825180602084015261220e8160408501602087016124cc565b601f017fffffffffffffffffffffffffffffffffffffffffffffffffffffffffffffffe0169190910160400192915050565b6000808212827f7fffffffffffffffffffffffffffffffffffffffffffffffffffffffffffffff0384138115161561227a5761227a61254c565b827f80000000000000000000000000000000000000000000000000000000000000000384128116156122ae576122ae61254c565b50500190565b600082198211156122c7576122c761254c565b500190565b6000826122db576122db61257b565b7fffffffffffffffffffffffffffffffffffffffffffffffffffffffffffffffff83147f80000000000000000000000000000000000000000000000000000000000000008314161561232f5761232f61254c565b500590565b6000826123435761234361257b565b500490565b60007f7fffffffffffffffffffffffffffffffffffffffffffffffffffffffffffffff6000841360008413858304851182821616156123895761238961254c565b7f800000000000000000000000000000000000000000000000000000000000000060008712868205881281841616156123c4576123c461254c565b600087129250878205871284841616156123e0576123e061254c565b878505871281841616156123f6576123f661254c565b505050929093029392505050565b6000817fffffffffffffffffffffffffffffffffffffffffffffffffffffffffffffffff048311821515161561243c5761243c61254c565b500290565b6000808312837f80000000000000000000000000000000000000000000000000000000000000000183128115161561247b5761247b61254c565b837f7fffffffffffffffffffffffffffffffffffffffffffffffffffffffffffffff0183138116156124af576124af61254c565b50500390565b6000828210156124c7576124c761254c565b500390565b60005b838110156124e75781810151838201526020016124cf565b83811115611c985750506000910152565b600181811c9082168061250c57607f821691505b60208210811415612546577f4e487b7100000000000000000000000000000000000000000000000000000000600052602260045260246000fd5b50919050565b7f4e487b7100000000000000000000000000000000000000000000000000000000600052601160045260246000fd5b7f4e487b7100000000000000000000000000000000000000000000000000000000600052601260045260246000fd5b73ffffffffffffffffffffffffffffffffffffffff811681146125cc57600080fd5b5056fea2646970667358221220e425e9dd59c22c0851a4e1b06161e62b7c2f408044559ec4e7aa4ca5202910e564736f6c63430008060033",
  "devdoc": {
    "kind": "dev",
    "methods": {
      "allowance(address,address)": {
        "details": "See {IERC20-allowance}."
      },
      "approve(address,uint256)": {
        "details": "See {IERC20-approve}. Requirements: - `spender` cannot be the zero address."
      },
      "balanceOf(address)": {
        "details": "See {IERC20-balanceOf}."
      },
      "decimals()": {
        "details": "Returns the number of decimals used to get its user representation. For example, if `decimals` equals `2`, a balance of `505` tokens should be displayed to a user as `5,05` (`505 / 10 ** 2`). Tokens usually opt for a value of 18, imitating the relationship between Ether and Wei. This is the value {ERC20} uses, unless this function is overridden; NOTE: This information is only used for _display_ purposes: it in no way affects any of the arithmetic of the contract, including {IERC20-balanceOf} and {IERC20-transfer}."
      },
      "decreaseAllowance(address,uint256)": {
        "details": "Atomically decreases the allowance granted to `spender` by the caller. This is an alternative to {approve} that can be used as a mitigation for problems described in {IERC20-approve}. Emits an {Approval} event indicating the updated allowance. Requirements: - `spender` cannot be the zero address. - `spender` must have allowance for the caller of at least `subtractedValue`."
      },
      "increaseAllowance(address,uint256)": {
        "details": "Atomically increases the allowance granted to `spender` by the caller. This is an alternative to {approve} that can be used as a mitigation for problems described in {IERC20-approve}. Emits an {Approval} event indicating the updated allowance. Requirements: - `spender` cannot be the zero address."
      },
      "name()": {
        "details": "Returns the name of the token."
      },
      "owner()": {
        "details": "Returns the address of the current owner."
      },
      "renounceOwnership()": {
        "details": "Leaves the contract without owner. It will not be possible to call `onlyOwner` functions anymore. Can only be called by the current owner. NOTE: Renouncing ownership will leave the contract without an owner, thereby removing any functionality that is only available to the owner."
      },
      "symbol()": {
        "details": "Returns the symbol of the token, usually a shorter version of the name."
      },
      "totalSupply()": {
        "details": "See {IERC20-totalSupply}."
      },
      "transfer(address,uint256)": {
        "details": "See {IERC20-transfer}. Requirements: - `recipient` cannot be the zero address. - the caller must have a balance of at least `amount`."
      },
      "transferFrom(address,address,uint256)": {
        "details": "See {IERC20-transferFrom}. Emits an {Approval} event indicating the updated allowance. This is not required by the EIP. See the note at the beginning of {ERC20}. Requirements: - `sender` and `recipient` cannot be the zero address. - `sender` must have a balance of at least `amount`. - the caller must have allowance for ``sender``'s tokens of at least `amount`."
      },
      "transferOwnership(address)": {
        "details": "Transfers ownership of the contract to a new account (`newOwner`). Can only be called by the current owner."
      }
    },
    "version": 1
  },
  "userdoc": {
    "kind": "user",
    "methods": {},
    "version": 1
  },
  "storageLayout": {
    "storage": [
      {
        "astId": 125,
        "contract": "contracts/FixedRateSwap.sol:FixedRateSwap",
        "label": "_balances",
        "offset": 0,
        "slot": "0",
        "type": "t_mapping(t_address,t_uint256)"
      },
      {
        "astId": 131,
        "contract": "contracts/FixedRateSwap.sol:FixedRateSwap",
        "label": "_allowances",
        "offset": 0,
        "slot": "1",
        "type": "t_mapping(t_address,t_mapping(t_address,t_uint256))"
      },
      {
        "astId": 133,
        "contract": "contracts/FixedRateSwap.sol:FixedRateSwap",
        "label": "_totalSupply",
        "offset": 0,
        "slot": "2",
        "type": "t_uint256"
      },
      {
        "astId": 135,
        "contract": "contracts/FixedRateSwap.sol:FixedRateSwap",
        "label": "_name",
        "offset": 0,
        "slot": "3",
        "type": "t_string_storage"
      },
      {
        "astId": 137,
        "contract": "contracts/FixedRateSwap.sol:FixedRateSwap",
        "label": "_symbol",
        "offset": 0,
        "slot": "4",
        "type": "t_string_storage"
      },
      {
        "astId": 7,
        "contract": "contracts/FixedRateSwap.sol:FixedRateSwap",
        "label": "_owner",
        "offset": 0,
        "slot": "5",
        "type": "t_address"
      }
    ],
    "types": {
      "t_address": {
        "encoding": "inplace",
        "label": "address",
        "numberOfBytes": "20"
      },
      "t_mapping(t_address,t_mapping(t_address,t_uint256))": {
        "encoding": "mapping",
        "key": "t_address",
        "label": "mapping(address => mapping(address => uint256))",
        "numberOfBytes": "32",
        "value": "t_mapping(t_address,t_uint256)"
      },
      "t_mapping(t_address,t_uint256)": {
        "encoding": "mapping",
        "key": "t_address",
        "label": "mapping(address => uint256)",
        "numberOfBytes": "32",
        "value": "t_uint256"
      },
      "t_string_storage": {
        "encoding": "bytes",
        "label": "string",
        "numberOfBytes": "32"
      },
      "t_uint256": {
        "encoding": "inplace",
        "label": "uint256",
        "numberOfBytes": "32"
      }
    }
  }
}