{
  "address": "0x40bbdE0eC6F177C4A67360d0f0969Cfc464b0bB4",
  "abi": [
    {
      "inputs": [
        {
          "internalType": "contract IERC20",
          "name": "_token0",
          "type": "address"
        },
        {
          "internalType": "contract IERC20",
          "name": "_token1",
          "type": "address"
        },
        {
          "internalType": "string",
          "name": "name",
          "type": "string"
        },
        {
          "internalType": "string",
          "name": "symbol",
          "type": "string"
        },
        {
          "internalType": "uint8",
          "name": "decimals_",
          "type": "uint8"
        }
      ],
      "stateMutability": "nonpayable",
      "type": "constructor"
    },
    {
      "anonymous": false,
      "inputs": [
        {
          "indexed": true,
          "internalType": "address",
          "name": "owner",
          "type": "address"
        },
        {
          "indexed": true,
          "internalType": "address",
          "name": "spender",
          "type": "address"
        },
        {
          "indexed": false,
          "internalType": "uint256",
          "name": "value",
          "type": "uint256"
        }
      ],
      "name": "Approval",
      "type": "event"
    },
    {
      "anonymous": false,
      "inputs": [
        {
          "indexed": true,
          "internalType": "address",
          "name": "previousOwner",
          "type": "address"
        },
        {
          "indexed": true,
          "internalType": "address",
          "name": "newOwner",
          "type": "address"
        }
      ],
      "name": "OwnershipTransferred",
      "type": "event"
    },
    {
      "anonymous": false,
      "inputs": [
        {
          "indexed": true,
          "internalType": "address",
          "name": "from",
          "type": "address"
        },
        {
          "indexed": true,
          "internalType": "address",
          "name": "to",
          "type": "address"
        },
        {
          "indexed": false,
          "internalType": "uint256",
          "name": "value",
          "type": "uint256"
        }
      ],
      "name": "Transfer",
      "type": "event"
    },
    {
      "inputs": [
        {
          "internalType": "address",
          "name": "owner",
          "type": "address"
        },
        {
          "internalType": "address",
          "name": "spender",
          "type": "address"
        }
      ],
      "name": "allowance",
      "outputs": [
        {
          "internalType": "uint256",
          "name": "",
          "type": "uint256"
        }
      ],
      "stateMutability": "view",
      "type": "function"
    },
    {
      "inputs": [
        {
          "internalType": "address",
          "name": "spender",
          "type": "address"
        },
        {
          "internalType": "uint256",
          "name": "amount",
          "type": "uint256"
        }
      ],
      "name": "approve",
      "outputs": [
        {
          "internalType": "bool",
          "name": "",
          "type": "bool"
        }
      ],
      "stateMutability": "nonpayable",
      "type": "function"
    },
    {
      "inputs": [
        {
          "internalType": "address",
          "name": "account",
          "type": "address"
        }
      ],
      "name": "balanceOf",
      "outputs": [
        {
          "internalType": "uint256",
          "name": "",
          "type": "uint256"
        }
      ],
      "stateMutability": "view",
      "type": "function"
    },
    {
      "inputs": [],
      "name": "decimals",
      "outputs": [
        {
          "internalType": "uint8",
          "name": "",
          "type": "uint8"
        }
      ],
      "stateMutability": "view",
      "type": "function"
    },
    {
      "inputs": [
        {
          "internalType": "address",
          "name": "spender",
          "type": "address"
        },
        {
          "internalType": "uint256",
          "name": "subtractedValue",
          "type": "uint256"
        }
      ],
      "name": "decreaseAllowance",
      "outputs": [
        {
          "internalType": "bool",
          "name": "",
          "type": "bool"
        }
      ],
      "stateMutability": "nonpayable",
      "type": "function"
    },
    {
      "inputs": [
        {
          "internalType": "uint256",
          "name": "token0Amount",
          "type": "uint256"
        },
        {
          "internalType": "uint256",
          "name": "token1Amount",
          "type": "uint256"
        }
      ],
      "name": "deposit",
      "outputs": [
        {
          "internalType": "uint256",
          "name": "share",
          "type": "uint256"
        }
      ],
      "stateMutability": "nonpayable",
      "type": "function"
    },
    {
      "inputs": [
        {
          "internalType": "uint256",
          "name": "token0Amount",
          "type": "uint256"
        },
        {
          "internalType": "uint256",
          "name": "token1Amount",
          "type": "uint256"
        },
        {
          "internalType": "address",
          "name": "to",
          "type": "address"
        }
      ],
      "name": "depositFor",
      "outputs": [
        {
          "internalType": "uint256",
          "name": "share",
          "type": "uint256"
        }
      ],
      "stateMutability": "nonpayable",
      "type": "function"
    },
    {
      "inputs": [
        {
          "internalType": "contract IERC20",
          "name": "tokenFrom",
          "type": "address"
        },
        {
          "internalType": "contract IERC20",
          "name": "tokenTo",
          "type": "address"
        },
        {
          "internalType": "uint256",
          "name": "inputAmount",
          "type": "uint256"
        }
      ],
      "name": "getReturn",
      "outputs": [
        {
          "internalType": "uint256",
          "name": "outputAmount",
          "type": "uint256"
        }
      ],
      "stateMutability": "view",
      "type": "function"
    },
    {
      "inputs": [
        {
          "internalType": "address",
          "name": "spender",
          "type": "address"
        },
        {
          "internalType": "uint256",
          "name": "addedValue",
          "type": "uint256"
        }
      ],
      "name": "increaseAllowance",
      "outputs": [
        {
          "internalType": "bool",
          "name": "",
          "type": "bool"
        }
      ],
      "stateMutability": "nonpayable",
      "type": "function"
    },
    {
      "inputs": [],
      "name": "name",
      "outputs": [
        {
          "internalType": "string",
          "name": "",
          "type": "string"
        }
      ],
      "stateMutability": "view",
      "type": "function"
    },
    {
      "inputs": [],
      "name": "owner",
      "outputs": [
        {
          "internalType": "address",
          "name": "",
          "type": "address"
        }
      ],
      "stateMutability": "view",
      "type": "function"
    },
    {
      "inputs": [],
      "name": "renounceOwnership",
      "outputs": [],
      "stateMutability": "nonpayable",
      "type": "function"
    },
    {
      "inputs": [
        {
          "internalType": "uint256",
          "name": "inputAmount",
          "type": "uint256"
        }
      ],
      "name": "swap0To1",
      "outputs": [
        {
          "internalType": "uint256",
          "name": "outputAmount",
          "type": "uint256"
        }
      ],
      "stateMutability": "nonpayable",
      "type": "function"
    },
    {
      "inputs": [
        {
          "internalType": "uint256",
          "name": "inputAmount",
          "type": "uint256"
        },
        {
          "internalType": "address",
          "name": "to",
          "type": "address"
        }
      ],
      "name": "swap0To1For",
      "outputs": [
        {
          "internalType": "uint256",
          "name": "outputAmount",
          "type": "uint256"
        }
      ],
      "stateMutability": "nonpayable",
      "type": "function"
    },
    {
      "inputs": [
        {
          "internalType": "uint256",
          "name": "inputAmount",
          "type": "uint256"
        }
      ],
      "name": "swap1To0",
      "outputs": [
        {
          "internalType": "uint256",
          "name": "outputAmount",
          "type": "uint256"
        }
      ],
      "stateMutability": "nonpayable",
      "type": "function"
    },
    {
      "inputs": [
        {
          "internalType": "uint256",
          "name": "inputAmount",
          "type": "uint256"
        },
        {
          "internalType": "address",
          "name": "to",
          "type": "address"
        }
      ],
      "name": "swap1To0For",
      "outputs": [
        {
          "internalType": "uint256",
          "name": "outputAmount",
          "type": "uint256"
        }
      ],
      "stateMutability": "nonpayable",
      "type": "function"
    },
    {
      "inputs": [],
      "name": "symbol",
      "outputs": [
        {
          "internalType": "string",
          "name": "",
          "type": "string"
        }
      ],
      "stateMutability": "view",
      "type": "function"
    },
    {
      "inputs": [],
      "name": "token0",
      "outputs": [
        {
          "internalType": "contract IERC20",
          "name": "",
          "type": "address"
        }
      ],
      "stateMutability": "view",
      "type": "function"
    },
    {
      "inputs": [],
      "name": "token1",
      "outputs": [
        {
          "internalType": "contract IERC20",
          "name": "",
          "type": "address"
        }
      ],
      "stateMutability": "view",
      "type": "function"
    },
    {
      "inputs": [],
      "name": "totalSupply",
      "outputs": [
        {
          "internalType": "uint256",
          "name": "",
          "type": "uint256"
        }
      ],
      "stateMutability": "view",
      "type": "function"
    },
    {
      "inputs": [
        {
          "internalType": "address",
          "name": "recipient",
          "type": "address"
        },
        {
          "internalType": "uint256",
          "name": "amount",
          "type": "uint256"
        }
      ],
      "name": "transfer",
      "outputs": [
        {
          "internalType": "bool",
          "name": "",
          "type": "bool"
        }
      ],
      "stateMutability": "nonpayable",
      "type": "function"
    },
    {
      "inputs": [
        {
          "internalType": "address",
          "name": "sender",
          "type": "address"
        },
        {
          "internalType": "address",
          "name": "recipient",
          "type": "address"
        },
        {
          "internalType": "uint256",
          "name": "amount",
          "type": "uint256"
        }
      ],
      "name": "transferFrom",
      "outputs": [
        {
          "internalType": "bool",
          "name": "",
          "type": "bool"
        }
      ],
      "stateMutability": "nonpayable",
      "type": "function"
    },
    {
      "inputs": [
        {
          "internalType": "address",
          "name": "newOwner",
          "type": "address"
        }
      ],
      "name": "transferOwnership",
      "outputs": [],
      "stateMutability": "nonpayable",
      "type": "function"
    },
    {
      "inputs": [
        {
          "internalType": "uint256",
          "name": "amount",
          "type": "uint256"
        }
      ],
      "name": "withdraw",
      "outputs": [
        {
          "internalType": "uint256",
          "name": "token0Share",
          "type": "uint256"
        },
        {
          "internalType": "uint256",
          "name": "token1Share",
          "type": "uint256"
        }
      ],
      "stateMutability": "nonpayable",
      "type": "function"
    },
    {
      "inputs": [
        {
          "internalType": "uint256",
          "name": "amount",
          "type": "uint256"
        },
        {
          "internalType": "address",
          "name": "to",
          "type": "address"
        }
      ],
      "name": "withdrawFor",
      "outputs": [
        {
          "internalType": "uint256",
          "name": "token0Share",
          "type": "uint256"
        },
        {
          "internalType": "uint256",
          "name": "token1Share",
          "type": "uint256"
        }
      ],
      "stateMutability": "nonpayable",
      "type": "function"
    }
  ],
  "transactionHash": "0xafe9b5044850b20b9a8d1196e13c07ba9953c8d452fb5dedf5f669dedbd2548c",
  "args": [
    "0xA0b86991c6218b36c1d19D4a2e9Eb0cE3606eB48",
    "0xdAC17F958D2ee523a2206206994597C13D831ec7",
    "FixedRateSwap",
    "FRS",
    6
  ],
  "solcInputHash": "6e32c03e843a354146db1678d8158d61",
  "bytecode": "0x60e06040523480156200001157600080fd5b5060405162002a7538038062002a75833981016040819052620000349162000292565b8251839083906200004d90600390602085019062000118565b5080516200006390600490602084019062000118565b5050506000620000786200011460201b60201c565b600580546001600160a01b0319166001600160a01b038316908117909155604051919250906000907f8be0079c531659141344cd1fd0a4f28419497f9722a3daafe3b4186f6b6457e0908290a350606094851b6001600160601b03199081166080529390941b90921660a052505060f81b7fff000000000000000000000000000000000000000000000000000000000000001660c05262000391565b3390565b82805462000126906200033e565b90600052602060002090601f0160209004810192826200014a576000855562000195565b82601f106200016557805160ff191683800117855562000195565b8280016001018555821562000195579182015b828111156200019557825182559160200191906001019062000178565b50620001a3929150620001a7565b5090565b5b80821115620001a35760008155600101620001a8565b80516001600160a01b0381168114620001d657600080fd5b919050565b600082601f830112620001ed57600080fd5b81516001600160401b03808211156200020a576200020a6200037b565b604051601f8301601f19908116603f011681019082821181831017156200023557620002356200037b565b816040528381526020925086838588010111156200025257600080fd5b600091505b8382101562000276578582018301518183018401529082019062000257565b83821115620002885760008385830101525b9695505050505050565b600080600080600060a08688031215620002ab57600080fd5b620002b686620001be565b9450620002c660208701620001be565b60408701519094506001600160401b0380821115620002e457600080fd5b620002f289838a01620001db565b945060608801519150808211156200030957600080fd5b506200031888828901620001db565b925050608086015160ff811681146200033057600080fd5b809150509295509295909350565b600181811c908216806200035357607f821691505b602082108114156200037557634e487b7160e01b600052602260045260246000fd5b50919050565b634e487b7160e01b600052604160045260246000fd5b60805160601c60a05160601c60c05160f81c61263b6200043a600039600061029c0152600081816103c901528181610ac901528181610bca01528181610cc401528181610ea30152818161108f01528181611268015281816113c101526114010152600081816101ee015281816109f101528181610b8301528181610ce501528181610e820152818161114c01528181611220015281816113a00152611422015261263b6000f3fe608060405234801561001057600080fd5b50600436106101a35760003560e01c8063715018a6116100ee578063a9059cbb11610097578063dd62ed3e11610071578063dd62ed3e146103eb578063e2bbb15814610431578063e9b4cfc714610444578063f2fde38b1461045757600080fd5b8063a9059cbb1461039e578063bd5b5642146103b1578063d21220a7146103c457600080fd5b806390210d7e116100c857806390210d7e1461037057806395d89b4114610383578063a457c2d71461038b57600080fd5b8063715018a6146103355780638999541a1461033f5780638da5cb5b1461035257600080fd5b80632e1a7d4d11610150578063395093511161012a57806339509351146102d9578063404a1f8a146102ec57806370a08231146102ff57600080fd5b80632e1a7d4d1461026d578063313ce567146102955780633576f6cc146102c657600080fd5b806318160ddd1161018157806318160ddd146102355780631e1401f81461024757806323b872dd1461025a57600080fd5b806306fdde03146101a8578063095ea7b3146101c65780630dfe1681146101e9575b600080fd5b6101b061046a565b6040516101bd919061240a565b60405180910390f35b6101d96101d43660046122ee565b6104fc565b60405190151581526020016101bd565b6102107f000000000000000000000000000000000000000000000000000000000000000081565b60405173ffffffffffffffffffffffffffffffffffffffff90911681526020016101bd565b6002545b6040519081526020016101bd565b6102396102553660046122ad565b610512565b6101d96102683660046122ad565b6107a9565b61028061027b36600461233c565b610898565b604080519283526020830191909152016101bd565b60405160ff7f00000000000000000000000000000000000000000000000000000000000000001681526020016101bd565b6102806102d436600461236e565b6108af565b6101d96102e73660046122ee565b610bf9565b6102396102fa36600461236e565b610c3d565b61023961030d366004612257565b73ffffffffffffffffffffffffffffffffffffffff1660009081526020819052604090205490565b61033d610d0b565b005b61023961034d36600461236e565b610dfb565b60055473ffffffffffffffffffffffffffffffffffffffff16610210565b61023961037e3660046123b5565b610ec9565b6101b06112a3565b6101d96103993660046122ee565b6112b2565b6101d96103ac3660046122ee565b61138c565b6102396103bf36600461233c565b611399565b6102107f000000000000000000000000000000000000000000000000000000000000000081565b6102396103f9366004612274565b73ffffffffffffffffffffffffffffffffffffffff918216600090815260016020908152604080832093909416825291909152205490565b61023961043f366004612393565b6113ed565b61023961045236600461233c565b6113fa565b61033d610465366004612257565b611448565b6060600380546104799061252e565b80601f01602080910402602001604051908101604052809291908181526020018280546104a59061252e565b80156104f25780601f106104c7576101008083540402835291602001916104f2565b820191906000526020600020905b8154815290600101906020018083116104d557829003601f168201915b5050505050905090565b60006105093384846115fa565b50600192915050565b6040517f70a08231000000000000000000000000000000000000000000000000000000008152306004820152600090819073ffffffffffffffffffffffffffffffffffffffff8616906370a082319060240160206040518083038186803b15801561057c57600080fd5b505afa158015610590573d6000803e3d6000fd5b505050506040513d601f19601f820116820180604052508101906105b49190612355565b6040517f70a0823100000000000000000000000000000000000000000000000000000000815230600482015290915060009073ffffffffffffffffffffffffffffffffffffffff8616906370a082319060240160206040518083038186803b15801561061f57600080fd5b505afa158015610633573d6000803e3d6000fd5b505050506040513d601f19601f820116820180604052508101906106579190612355565b9050808411156106c8576040517f08c379a000000000000000000000000000000000000000000000000000000000815260206004820152601760248201527f696e70757420616d6f756e7420697320746f6f2062696700000000000000000060448201526064015b60405180910390fd5b600081830183670de0b6b3a764000002816106e5576106e56125b1565b0490506000828401868501670de0b6b3a76400000281610707576107076125b1565b049050600083850187670de0b6b3a76400000281610727576107276125b1565b049050600081610736846117ae565b672ef1cef240e85ce802610749866117ae565b672ef1cef240e85ce80284670de05bc096e9c0000201038161076d5761076d6125b1565b049050670de0b6b3a764000061078b82670de0b6b3a764000061181d565b89028161079a5761079a6125b1565b049a9950505050505050505050565b60006107b6848484611833565b73ffffffffffffffffffffffffffffffffffffffff8416600090815260016020908152604080832033845290915290205482811015610877576040517f08c379a000000000000000000000000000000000000000000000000000000000815260206004820152602860248201527f45524332303a207472616e7366657220616d6f756e742065786365656473206160448201527f6c6c6f77616e636500000000000000000000000000000000000000000000000060648201526084016106bf565b61088b853361088686856124eb565b6115fa565b60019150505b9392505050565b6000806108a583336108af565b9094909350915050565b6000806000841161091c576040517f08c379a000000000000000000000000000000000000000000000000000000000815260206004820152601f60248201527f456d707479207769746864726177616c206973206e6f7420616c6c6f7765640060448201526064016106bf565b73ffffffffffffffffffffffffffffffffffffffff831630141561099c576040517f08c379a000000000000000000000000000000000000000000000000000000000815260206004820152601f60248201527f5769746864726177616c20746f207468697320697320666f7262696464656e0060448201526064016106bf565b60006109a760025490565b6040517f70a082310000000000000000000000000000000000000000000000000000000081523060048201529091508190869073ffffffffffffffffffffffffffffffffffffffff7f000000000000000000000000000000000000000000000000000000000000000016906370a082319060240160206040518083038186803b158015610a3357600080fd5b505afa158015610a47573d6000803e3d6000fd5b505050506040513d601f19601f82011682018060405250810190610a6b9190612355565b610a7591906124ae565b610a7f9190612473565b6040517f70a082310000000000000000000000000000000000000000000000000000000081523060048201529093508190869073ffffffffffffffffffffffffffffffffffffffff7f000000000000000000000000000000000000000000000000000000000000000016906370a082319060240160206040518083038186803b158015610b0b57600080fd5b505afa158015610b1f573d6000803e3d6000fd5b505050506040513d601f19601f82011682018060405250810190610b439190612355565b610b4d91906124ae565b610b579190612473565b9150610b633386611af0565b8215610baa57610baa73ffffffffffffffffffffffffffffffffffffffff7f0000000000000000000000000000000000000000000000000000000000000000168585611cde565b8115610bf157610bf173ffffffffffffffffffffffffffffffffffffffff7f0000000000000000000000000000000000000000000000000000000000000000168584611cde565b509250929050565b33600081815260016020908152604080832073ffffffffffffffffffffffffffffffffffffffff87168452909152812054909161050991859061088690869061245b565b600073ffffffffffffffffffffffffffffffffffffffff8216301415610cbf576040517f08c379a000000000000000000000000000000000000000000000000000000000815260206004820152601960248201527f5377617020746f207468697320697320666f7262696464656e0000000000000060448201526064016106bf565b6108917f00000000000000000000000000000000000000000000000000000000000000007f00000000000000000000000000000000000000000000000000000000000000008585611db7565b60055473ffffffffffffffffffffffffffffffffffffffff163314610d8c576040517f08c379a000000000000000000000000000000000000000000000000000000000815260206004820181905260248201527f4f776e61626c653a2063616c6c6572206973206e6f7420746865206f776e657260448201526064016106bf565b60055460405160009173ffffffffffffffffffffffffffffffffffffffff16907f8be0079c531659141344cd1fd0a4f28419497f9722a3daafe3b4186f6b6457e0908390a3600580547fffffffffffffffffffffffff0000000000000000000000000000000000000000169055565b600073ffffffffffffffffffffffffffffffffffffffff8216301415610e7d576040517f08c379a000000000000000000000000000000000000000000000000000000000815260206004820152601960248201527f5377617020746f207468697320697320666f7262696464656e0000000000000060448201526064016106bf565b6108917f00000000000000000000000000000000000000000000000000000000000000007f00000000000000000000000000000000000000000000000000000000000000008585611db7565b60055460009073ffffffffffffffffffffffffffffffffffffffff163314610f4d576040517f08c379a000000000000000000000000000000000000000000000000000000000815260206004820181905260248201527f4f776e61626c653a2063616c6c6572206973206e6f7420746865206f776e657260448201526064016106bf565b6000610f59848661245b565b905060008111610fc5576040517f08c379a000000000000000000000000000000000000000000000000000000000815260206004820152601c60248201527f456d707479206465706f736974206973206e6f7420616c6c6f7765640000000060448201526064016106bf565b73ffffffffffffffffffffffffffffffffffffffff8316301415611045576040517f08c379a000000000000000000000000000000000000000000000000000000000815260206004820152601c60248201527f4465706f73697420746f207468697320697320666f7262696464656e0000000060448201526064016106bf565b600061105060025490565b90508192506000811115611200576040517f70a082310000000000000000000000000000000000000000000000000000000081523060048201526000907f000000000000000000000000000000000000000000000000000000000000000073ffffffffffffffffffffffffffffffffffffffff16906370a082319060240160206040518083038186803b1580156110e657600080fd5b505afa1580156110fa573d6000803e3d6000fd5b505050506040513d601f19601f8201168201806040525081019061111e9190612355565b6040517f70a082310000000000000000000000000000000000000000000000000000000081523060048201527f000000000000000000000000000000000000000000000000000000000000000073ffffffffffffffffffffffffffffffffffffffff16906370a082319060240160206040518083038186803b1580156111a357600080fd5b505afa1580156111b7573d6000803e3d6000fd5b505050506040513d601f19601f820116820180604052508101906111db9190612355565b6111e5919061245b565b9050806111f283856124ae565b6111fc9190612473565b9350505b85156112485761124873ffffffffffffffffffffffffffffffffffffffff7f000000000000000000000000000000000000000000000000000000000000000016333089611e7b565b84156112905761129073ffffffffffffffffffffffffffffffffffffffff7f000000000000000000000000000000000000000000000000000000000000000016333088611e7b565b61129a8484611edf565b50509392505050565b6060600480546104799061252e565b33600090815260016020908152604080832073ffffffffffffffffffffffffffffffffffffffff8616845290915281205482811015611373576040517f08c379a000000000000000000000000000000000000000000000000000000000815260206004820152602560248201527f45524332303a2064656372656173656420616c6c6f77616e63652062656c6f7760448201527f207a65726f00000000000000000000000000000000000000000000000000000060648201526084016106bf565b611382338561088686856124eb565b5060019392505050565b6000610509338484611833565b60006113e77f00000000000000000000000000000000000000000000000000000000000000007f00000000000000000000000000000000000000000000000000000000000000008433611db7565b92915050565b6000610891838333610ec9565b60006113e77f00000000000000000000000000000000000000000000000000000000000000007f00000000000000000000000000000000000000000000000000000000000000008433611db7565b60055473ffffffffffffffffffffffffffffffffffffffff1633146114c9576040517f08c379a000000000000000000000000000000000000000000000000000000000815260206004820181905260248201527f4f776e61626c653a2063616c6c6572206973206e6f7420746865206f776e657260448201526064016106bf565b73ffffffffffffffffffffffffffffffffffffffff811661156c576040517f08c379a000000000000000000000000000000000000000000000000000000000815260206004820152602660248201527f4f776e61626c653a206e6577206f776e657220697320746865207a65726f206160448201527f646472657373000000000000000000000000000000000000000000000000000060648201526084016106bf565b60055460405173ffffffffffffffffffffffffffffffffffffffff8084169216907f8be0079c531659141344cd1fd0a4f28419497f9722a3daafe3b4186f6b6457e090600090a3600580547fffffffffffffffffffffffff00000000000000000000000000000000000000001673ffffffffffffffffffffffffffffffffffffffff92909216919091179055565b73ffffffffffffffffffffffffffffffffffffffff831661169c576040517f08c379a0000000000000000000000000000000000000000000000000000000008152602060048201526024808201527f45524332303a20617070726f76652066726f6d20746865207a65726f2061646460448201527f726573730000000000000000000000000000000000000000000000000000000060648201526084016106bf565b73ffffffffffffffffffffffffffffffffffffffff821661173f576040517f08c379a000000000000000000000000000000000000000000000000000000000815260206004820152602260248201527f45524332303a20617070726f766520746f20746865207a65726f20616464726560448201527f737300000000000000000000000000000000000000000000000000000000000060648201526084016106bf565b73ffffffffffffffffffffffffffffffffffffffff83811660008181526001602090815260408083209487168084529482529182902085905590518481527f8c5be1e5ebec7d5bd14f71427d1e84f3dd0314c0f7b2291e5b200ac8c7c3b92591015b60405180910390a3505050565b6000670656e7dd8da1ca208211156117e957507ffffffffffffffffffffffffffffffffffffffffffffffffff9a91822725e35e081016117f7565b81670656e7dd8da1ca200390505b670de0b6b3a7640000908002819004808002829004800282900480028290040204919050565b600081831061182c5781610891565b5090919050565b73ffffffffffffffffffffffffffffffffffffffff83166118d6576040517f08c379a000000000000000000000000000000000000000000000000000000000815260206004820152602560248201527f45524332303a207472616e736665722066726f6d20746865207a65726f20616460448201527f647265737300000000000000000000000000000000000000000000000000000060648201526084016106bf565b73ffffffffffffffffffffffffffffffffffffffff8216611979576040517f08c379a000000000000000000000000000000000000000000000000000000000815260206004820152602360248201527f45524332303a207472616e7366657220746f20746865207a65726f206164647260448201527f657373000000000000000000000000000000000000000000000000000000000060648201526084016106bf565b73ffffffffffffffffffffffffffffffffffffffff831660009081526020819052604090205481811015611a2f576040517f08c379a000000000000000000000000000000000000000000000000000000000815260206004820152602660248201527f45524332303a207472616e7366657220616d6f756e742065786365656473206260448201527f616c616e6365000000000000000000000000000000000000000000000000000060648201526084016106bf565b611a3982826124eb565b73ffffffffffffffffffffffffffffffffffffffff8086166000908152602081905260408082209390935590851681529081208054849290611a7c90849061245b565b925050819055508273ffffffffffffffffffffffffffffffffffffffff168473ffffffffffffffffffffffffffffffffffffffff167fddf252ad1be2c89b69c2b068fc378daa952ba7f163c4a11628f55a4df523b3ef84604051611ae291815260200190565b60405180910390a350505050565b73ffffffffffffffffffffffffffffffffffffffff8216611b93576040517f08c379a000000000000000000000000000000000000000000000000000000000815260206004820152602160248201527f45524332303a206275726e2066726f6d20746865207a65726f2061646472657360448201527f730000000000000000000000000000000000000000000000000000000000000060648201526084016106bf565b73ffffffffffffffffffffffffffffffffffffffff821660009081526020819052604090205481811015611c49576040517f08c379a000000000000000000000000000000000000000000000000000000000815260206004820152602260248201527f45524332303a206275726e20616d6f756e7420657863656564732062616c616e60448201527f636500000000000000000000000000000000000000000000000000000000000060648201526084016106bf565b611c5382826124eb565b73ffffffffffffffffffffffffffffffffffffffff841660009081526020819052604081209190915560028054849290611c8e9084906124eb565b909155505060405182815260009073ffffffffffffffffffffffffffffffffffffffff8516907fddf252ad1be2c89b69c2b068fc378daa952ba7f163c4a11628f55a4df523b3ef906020016117a1565b60405173ffffffffffffffffffffffffffffffffffffffff8316602482015260448101829052611db29084907fa9059cbb00000000000000000000000000000000000000000000000000000000906064015b604080517fffffffffffffffffffffffffffffffffffffffffffffffffffffffffffffffe08184030181529190526020810180517bffffffffffffffffffffffffffffffffffffffffffffffffffffffff167fffffffff0000000000000000000000000000000000000000000000000000000090931692909217909152611fff565b505050565b6000611dc4858585610512565b905060008111611e30576040517f08c379a000000000000000000000000000000000000000000000000000000000815260206004820152601960248201527f456d7074792073776170206973206e6f7420616c6c6f7765640000000000000060448201526064016106bf565b611e5273ffffffffffffffffffffffffffffffffffffffff8616333086611e7b565b611e7373ffffffffffffffffffffffffffffffffffffffff85168383611cde565b949350505050565b60405173ffffffffffffffffffffffffffffffffffffffff80851660248301528316604482015260648101829052611ed99085907f23b872dd0000000000000000000000000000000000000000000000000000000090608401611d30565b50505050565b73ffffffffffffffffffffffffffffffffffffffff8216611f5c576040517f08c379a000000000000000000000000000000000000000000000000000000000815260206004820152601f60248201527f45524332303a206d696e7420746f20746865207a65726f20616464726573730060448201526064016106bf565b8060026000828254611f6e919061245b565b909155505073ffffffffffffffffffffffffffffffffffffffff821660009081526020819052604081208054839290611fa890849061245b565b909155505060405181815273ffffffffffffffffffffffffffffffffffffffff8316906000907fddf252ad1be2c89b69c2b068fc378daa952ba7f163c4a11628f55a4df523b3ef9060200160405180910390a35050565b6000612061826040518060400160405280602081526020017f5361666545524332303a206c6f772d6c6576656c2063616c6c206661696c65648152508573ffffffffffffffffffffffffffffffffffffffff1661210b9092919063ffffffff16565b805190915015611db2578080602001905181019061207f919061231a565b611db2576040517f08c379a000000000000000000000000000000000000000000000000000000000815260206004820152602a60248201527f5361666545524332303a204552433230206f7065726174696f6e20646964206e60448201527f6f7420737563636565640000000000000000000000000000000000000000000060648201526084016106bf565b6060611e73848460008585843b61217e576040517f08c379a000000000000000000000000000000000000000000000000000000000815260206004820152601d60248201527f416464726573733a2063616c6c20746f206e6f6e2d636f6e747261637400000060448201526064016106bf565b6000808673ffffffffffffffffffffffffffffffffffffffff1685876040516121a791906123ee565b60006040518083038185875af1925050503d80600081146121e4576040519150601f19603f3d011682016040523d82523d6000602084013e6121e9565b606091505b50915091506121f9828286612204565b979650505050505050565b60608315612213575081610891565b8251156122235782518084602001fd5b816040517f08c379a00000000000000000000000000000000000000000000000000000000081526004016106bf919061240a565b60006020828403121561226957600080fd5b8135610891816125e0565b6000806040838503121561228757600080fd5b8235612292816125e0565b915060208301356122a2816125e0565b809150509250929050565b6000806000606084860312156122c257600080fd5b83356122cd816125e0565b925060208401356122dd816125e0565b929592945050506040919091013590565b6000806040838503121561230157600080fd5b823561230c816125e0565b946020939093013593505050565b60006020828403121561232c57600080fd5b8151801515811461089157600080fd5b60006020828403121561234e57600080fd5b5035919050565b60006020828403121561236757600080fd5b5051919050565b6000806040838503121561238157600080fd5b8235915060208301356122a2816125e0565b600080604083850312156123a657600080fd5b50508035926020909101359150565b6000806000606084860312156123ca57600080fd5b833592506020840135915060408401356123e3816125e0565b809150509250925092565b60008251612400818460208701612502565b9190910192915050565b6020815260008251806020840152612429816040850160208701612502565b601f017fffffffffffffffffffffffffffffffffffffffffffffffffffffffffffffffe0169190910160400192915050565b6000821982111561246e5761246e612582565b500190565b6000826124a9577f4e487b7100000000000000000000000000000000000000000000000000000000600052601260045260246000fd5b500490565b6000817fffffffffffffffffffffffffffffffffffffffffffffffffffffffffffffffff04831182151516156124e6576124e6612582565b500290565b6000828210156124fd576124fd612582565b500390565b60005b8381101561251d578181015183820152602001612505565b83811115611ed95750506000910152565b600181811c9082168061254257607f821691505b6020821081141561257c577f4e487b7100000000000000000000000000000000000000000000000000000000600052602260045260246000fd5b50919050565b7f4e487b7100000000000000000000000000000000000000000000000000000000600052601160045260246000fd5b7f4e487b7100000000000000000000000000000000000000000000000000000000600052601260045260246000fd5b73ffffffffffffffffffffffffffffffffffffffff8116811461260257600080fd5b5056fea26469706673582212200e66e9d152ed549115ba8ced98d30f5d04c29090afa23a203b4af11f7cf7197b64736f6c63430008060033",
  "devdoc": {
    "kind": "dev",
    "methods": {
      "allowance(address,address)": {
        "details": "See {IERC20-allowance}."
      },
      "approve(address,uint256)": {
        "details": "See {IERC20-approve}. Requirements: - `spender` cannot be the zero address."
      },
      "balanceOf(address)": {
        "details": "See {IERC20-balanceOf}."
      },
      "decimals()": {
        "details": "Returns the number of decimals used to get its user representation. For example, if `decimals` equals `2`, a balance of `505` tokens should be displayed to a user as `5,05` (`505 / 10 ** 2`). Tokens usually opt for a value of 18, imitating the relationship between Ether and Wei. This is the value {ERC20} uses, unless this function is overridden; NOTE: This information is only used for _display_ purposes: it in no way affects any of the arithmetic of the contract, including {IERC20-balanceOf} and {IERC20-transfer}."
      },
      "decreaseAllowance(address,uint256)": {
        "details": "Atomically decreases the allowance granted to `spender` by the caller. This is an alternative to {approve} that can be used as a mitigation for problems described in {IERC20-approve}. Emits an {Approval} event indicating the updated allowance. Requirements: - `spender` cannot be the zero address. - `spender` must have allowance for the caller of at least `subtractedValue`."
      },
      "increaseAllowance(address,uint256)": {
        "details": "Atomically increases the allowance granted to `spender` by the caller. This is an alternative to {approve} that can be used as a mitigation for problems described in {IERC20-approve}. Emits an {Approval} event indicating the updated allowance. Requirements: - `spender` cannot be the zero address."
      },
      "name()": {
        "details": "Returns the name of the token."
      },
      "owner()": {
        "details": "Returns the address of the current owner."
      },
      "renounceOwnership()": {
        "details": "Leaves the contract without owner. It will not be possible to call `onlyOwner` functions anymore. Can only be called by the current owner. NOTE: Renouncing ownership will leave the contract without an owner, thereby removing any functionality that is only available to the owner."
      },
      "symbol()": {
        "details": "Returns the symbol of the token, usually a shorter version of the name."
      },
      "totalSupply()": {
        "details": "See {IERC20-totalSupply}."
      },
      "transfer(address,uint256)": {
        "details": "See {IERC20-transfer}. Requirements: - `recipient` cannot be the zero address. - the caller must have a balance of at least `amount`."
      },
      "transferFrom(address,address,uint256)": {
        "details": "See {IERC20-transferFrom}. Emits an {Approval} event indicating the updated allowance. This is not required by the EIP. See the note at the beginning of {ERC20}. Requirements: - `sender` and `recipient` cannot be the zero address. - `sender` must have a balance of at least `amount`. - the caller must have allowance for ``sender``'s tokens of at least `amount`."
      },
      "transferOwnership(address)": {
        "details": "Transfers ownership of the contract to a new account (`newOwner`). Can only be called by the current owner."
      }
    },
    "version": 1
  },
  "userdoc": {
    "kind": "user",
    "methods": {},
    "version": 1
  },
  "storageLayout": {
    "storage": [
      {
        "astId": 125,
        "contract": "contracts/FixedRateSwap.sol:FixedRateSwap",
        "label": "_balances",
        "offset": 0,
        "slot": "0",
        "type": "t_mapping(t_address,t_uint256)"
      },
      {
        "astId": 131,
        "contract": "contracts/FixedRateSwap.sol:FixedRateSwap",
        "label": "_allowances",
        "offset": 0,
        "slot": "1",
        "type": "t_mapping(t_address,t_mapping(t_address,t_uint256))"
      },
      {
        "astId": 133,
        "contract": "contracts/FixedRateSwap.sol:FixedRateSwap",
        "label": "_totalSupply",
        "offset": 0,
        "slot": "2",
        "type": "t_uint256"
      },
      {
        "astId": 135,
        "contract": "contracts/FixedRateSwap.sol:FixedRateSwap",
        "label": "_name",
        "offset": 0,
        "slot": "3",
        "type": "t_string_storage"
      },
      {
        "astId": 137,
        "contract": "contracts/FixedRateSwap.sol:FixedRateSwap",
        "label": "_symbol",
        "offset": 0,
        "slot": "4",
        "type": "t_string_storage"
      },
      {
        "astId": 7,
        "contract": "contracts/FixedRateSwap.sol:FixedRateSwap",
        "label": "_owner",
        "offset": 0,
        "slot": "5",
        "type": "t_address"
      }
    ],
    "types": {
      "t_address": {
        "encoding": "inplace",
        "label": "address",
        "numberOfBytes": "20"
      },
      "t_mapping(t_address,t_mapping(t_address,t_uint256))": {
        "encoding": "mapping",
        "key": "t_address",
        "label": "mapping(address => mapping(address => uint256))",
        "numberOfBytes": "32",
        "value": "t_mapping(t_address,t_uint256)"
      },
      "t_mapping(t_address,t_uint256)": {
        "encoding": "mapping",
        "key": "t_address",
        "label": "mapping(address => uint256)",
        "numberOfBytes": "32",
        "value": "t_uint256"
      },
      "t_string_storage": {
        "encoding": "bytes",
        "label": "string",
        "numberOfBytes": "32"
      },
      "t_uint256": {
        "encoding": "inplace",
        "label": "uint256",
        "numberOfBytes": "32"
      }
    }
  }
}